:1000000056C0000070C000006EC000006CC0000050
:100010006AC0000068C0000066C0000064C0000044
:1000200062C000000C94F60C5EC000005CC00000D2
:100030005AC000000C94C60856C0000054C000000E
:1000400052C0000050C000004EC000004CC0000074
:100050004AC0000048C0000046C0000044C0000084
:1000600042C0000040C000004C3136206364656728
:1000700072656734003E6733323E3E633332005070
:100080006C616E6E696E6700506174680033F720B2
:10009000526F626F740020506F6C6F6C75000000BF
:1000A00000000000001F1F1F1F1F1F1FAE0D112487
:1000B0001FBECFEFD8E0DEBFCDBF12E0A0E0B1E0C1
:1000C000E0E7FFE202C005900D92AE3AB107D9F722
:1000D00024E0AEEAB2E001C01D92A031B207E1F720
:1000E000E5D40C94AC178CCF809100018F5F809386
:1000F00000010895AAE0B0E0E0E8F0E00C942C13D1
:1001000080ED97E00E94AC0DA6D086E990E00E94B9
:100110006C0A61E080E00E94CF0B8DE890E00E94C5
:100120006C0A85E790E00E94400988EE93E00E9407
:100130003E0D0E94500A88E890E00E946C0A61E03F
:1001400080E00E94CF0B8FE790E00E946C0A88EE5F
:1001500093E00E943E0D80E10E94F40C811119C0D1
:100160006CD58C010E94500AB801110F880B990BB5
:100170000E94BD0A87E392E00E945D0A61E080E090
:100180000E94CF0B8AE392E00E945D0A84E690E031
:10019000E0CF80E10E94E40C88EE93E00E943E0DE7
:1001A0000CEE1FEF0832110528F06CEE7FEF84E1B2
:1001B00090E004C064E170E08CEE9FEF0E94B90C07
:1001C00081E00E94770D84E190E00E943E0D0F5F78
:1001D0001F4F0C33110531F760E070E080E090E0D4
:1001E0000E94B90C80E10E94F40C811119C061E0F9
:1001F000CE0101960E947B0D8C010E94500AB8012D
:1002000080E090E00E94BD0A61E080E00E94CF0B98
:10021000CE01019645D084E690E00E943E0DE2CFEB
:1002200080E10E94E40C0E94500A82E492E00E9465
:100230005D0A88E690E00E9440090E94250981112C
:10024000FCCF2A96E4E00C944813809101018F5F63
:1002500080930101089560E08EE990E00E94F10929
:1002600061E08FE990E00E94F10962E080EA90E0AD
:100270000E94F10963E081EA90E00E94F10964E0E4
:1002800082EA90E00E94F10965E083EA90E00E9432
:10029000F10966E084EA90E00E94F1090C94500AAA
:1002A000AAE0B0E0E6E5F1E00C9428138C017C01B3
:1002B0008AE0E80EF11C85E6C82ED12C8AE0E0E148
:1002C000F2E0DE01119601900D928A95E1F7F801B6
:1002D000819191918F01B6010E949A12E1E0F0E0C4
:1002E000EC0FFD1FE60FF71F80810E94F3090E152A
:1002F0001F0521F72A96E8E00C944413809102012F
:100300008F5F809302010895AAE0B0E0EAE8F1E08F
:100310000C942013812C912C540100E010E030E16A
:10032000432E37E2532E612C712C44E1C42ED12C84
:1003300061E0CE0101960E947B0D805D97407C01BB
:10034000092E000CAA0BBB0B880E991EAA1EBB1E01
:10035000C701801B910B8C01000F111F080F191F83
:1003600017FF02C00F5F1F4F15950795C501B40118
:10037000A30192010E94E312200F311FC701B601B1
:100380000E94AE12C901860F971F853191056CF44A
:100390008C3E2FEF92071CF097FF09C002C08CEE35
:1003A0009FEF64E170E0449607C084E190E0B601FD
:1003B000681B790B84E190E00E94B90C89819A81D5
:1003C000893C9105F0F08B819C81893C9105C8F0B6
:1003D0008D819E81893C9105A0F08F819885893C13
:1003E000910578F089859A85893C910550F060E007
:1003F00070E080E090E00E94B90C2A96E0E10C9455
:100400003C13870195CF809103018F5F8093030197
:1004100008958C3469F0823581F08234C1F46CEE39
:100420007FEF84E190E00E94B90C80E991E00DC07B
:1004300069E170E087EE9FEF04C067EE7FEF89E12E
:1004400090E00E94B90C88EC90E00C943E0D089569
:10045000809104018F5F809304010895E091AE02C2
:10046000F0E0E155FD4F10820E94500A8FEA92E0C1
:100470000E945D0A8091AE02893040F061E080E028
:100480000E94CF0B87EB92E00C945D0A0895841BC9
:10049000950B97FF03C0919581959109621B730B92
:1004A00077FF03C0719561957109860F971F0895B5
:1004B000A4E0B0E0EEE5F2E00C941E130E940E0CF6
:1004C000EFD788EC90E00E943E0D86E492E09F9387
:1004D0008F930E94C61488EC90E00E943E0D8CE43D
:1004E00092E09F938F930E94C61480ED97E00E9444
:1004F0003E0DD6D720900C0130900D01A090180130
:10050000B09019010F900F900F900F902A143B0498
:100510000CF180911201909113019093F903809353
:10052000F80380911001909111019093FB03809347
:10053000FA03BCE62B2EB2E03B2E17E6412E12E06A
:10054000512E05E8602E02E0702E8FE7882E82E0A3
:10055000982EACC160910E0170910F017A8369836E
:1005600080901A0190901B016815790594F677FD2B
:10057000D0CF37FCCECF409016015090170163E1E9
:1005800073E00CE811E040E050E0481559050CF626
:10059000FB0120E030E07A0189819A81E81AF90AAA
:1005A000662477246E187F082A153B0514F5670129
:1005B000F7FC6301C9018219930997FF03C0919564
:1005C000819591098C0D9D1D918380836901CC0CCF
:1005D000DD1CC00ED11ED601CD90DC90CA94CD2872
:1005E00021F4840D951D918380832F5F3F4F3296B8
:1005F000DBCF4F5F5F4F605F7F4F005F1F4FC5CF07
:1006000060817181620F731F7093F1036093F00337
:100610008C010F5F1F4FDA01E3E0AA0FBB1FEA95C1
:10062000E1F7BC83AB83A00FB11FFD01EE0FFF1FED
:10063000BF01645E7E4FDB016D917C91DF01AD5E99
:10064000BC4F6230710509F063C10D90BC91A02DC3
:10065000A20FB31F60911401709115016A0F7B1FE7
:100660007093F3036093F2034F5F5F4FDA0163E02F
:10067000AA0FBB1F6A95E1F7A80FB91FFD01EE0F86
:10068000FF1FBF01645E7E4FDB016D917C91DF0136
:10069000AD5EBC4F6230710509F03FC10D90BC9159
:1006A000A02DA20FB31F60911401709115016A0F64
:1006B0007B1F7093F5036093F403FC013197FA8379
:1006C000E983DF016B817C81A60FB71FFD01EE0F6F
:1006D000FF1FBF01645E7E4FDB016D917C91DF01E6
:1006E000AD5EBC4F6230710509F01CC16D917C910B
:1006F000260F371F6091140170911501260F371FC7
:100700003093F7032093F6032091EA033091EB0333
:1007100070EFE72E73E0F72EA4E6B0E060E070E043
:10072000F701C190D1907F01CA16DB0614F49B013A
:10073000D6016F5F7F4F6430710591F7B093090167
:10074000A09308013093EB032093EA03EB81FC8133
:10075000E80FF91FEE0FFF1FE45EFE4F62E070E04E
:10076000718360832115310509F0DFC0B092F90370
:10077000A092F80384E992E09F938F930E94C6149D
:1007800085E5809306010F900F908091FB038F9376
:100790008091FA038F938091F9038F938091F803EE
:1007A0008F936FE572E07F936F930E94C6140F9052
:1007B0000F900F900F900F900F90909107018091E4
:1007C0000601923509F40AC10CF0DFC0943409F433
:1007D00012C19C3409F4DFC08091060180930701A7
:1007E0008091050116DE8091AE02E82FF0E0E15520
:1007F000FD4F9091050190838F5F8093AE0284DD61
:1008000061E08CEF93E00E947B0D8091FC0390915E
:10081000FD03893C910598F38091FE039091FF03BD
:10082000893C910560F38091000490910104893C1A
:10083000910528F38091020490910304893C91056D
:10084000F0F28091040490910504893C9105B8F27E
:1008500088E992E007D564E170E084E190E00E94CD
:10086000B90C84E690E00E943E0D60E070E080E00C
:1008700090E00E94B90C88E992E0F4D48091F803EA
:100880009091F90320910E0130910F01E091FA034C
:10089000F091FB038217930709F4CDC02091180152
:1008A000309119012E173F070CF4E7C0F9D540919C
:1008B000F8035091F9035A0191E0A91AB108809107
:1008C000FA039091FB03F501B3E0EE0FFF1FBA9519
:1008D000E1F7E80FF91FEE0FFF1FDF01A45EBE4F27
:1008E0006D917C91ED5EFC4F20910A0130910B01DE
:1008F0006230710509F084CE0190F081E02DE20FA5
:10090000F31F60911401709115016E0F7F1F7CCE53
:100910006D917C91620F731FA3CE6D917C91620FDC
:10092000731FC7CE6D917C91E9CE2130310561F402
:100930001093FB030093FA03E3E5F2E0FF93EF93D8
:100940000E94C61482E51DCF2230310561F4509318
:10095000F9034093F80367E572E07F936F930E9479
:10096000C61484E40ECF2330310509F00ECFA981DF
:10097000BA81B093FB03A093FA03EBE5F2E0FF9397
:10098000EF930E94C6148CE4FCCE953589F198351E
:1009900009F441C021CF843431F45F924F920E9418
:1009A000C6148CE416C0823519F43F922F9237C0DA
:1009B0008C3429F4A5E7B2E0BF93AF9320C085350E
:1009C00009F00ACF6AE772E07F936F930E94C61422
:1009D00082E5809305010F900F90FECE843491F351
:1009E000823541F38C3409F3853509F0F5CED5CF46
:1009F0008434C1F4DACF843431F49F928F920E9410
:100A0000C61483E5E6CF823541F28C34D9F28535C0
:100A100009F0E2CECACF843429F47F926F920E940B
:100A2000C614D9CF823571F28C3409F4B6CF85352E
:100A300009F0D2CEBFCF20910C0130910D01E21709
:100A4000F30709F02BCF23E0880F991F2A95E1F7D0
:100A5000E80FF91FEE0FFF1FE45EFE4F82E090E00B
:100A6000918380831DD58EE992E00E94D91460E0C5
:100A700070E080E090E07DD715C020911A013091A0
:100A80001B01281739070CF011CF8F3F9F4F0CF037
:100A90000DCFEF3FFF4F0CF009CF02D584EA92E073
:100AA0000E94D9142496E2E10C943A1323DB00DD72
:100AB000FFCFECE7F0E080818F7D80830895811186
:100AC00001C0F7CF80917C00806280937C00089504
:100AD00080917C0085FB882780F90895F9DF8823C1
:100AE00021F08091790090E00895809178009091B4
:100AF000790008958032A0F497E890937A0090915D
:100B00007C00662311F0906C02C09F779064907E09
:100B1000982B90937C0080917A00806480937A0077
:100B20000895A0E0B0E0E7E9F5E00C942813EB01AC
:100B300060E0E0DF80917A0086FDFCCF8E01C12C61
:100B4000D12C760180917A00806480937A00809124
:100B50007A0086FDFCCFC2DFC80ED91EE11CF11C55
:100B6000015011090115110569F7CE019695879578
:100B7000C034D10538F48C0D9D1DBE010E949A121F
:100B8000CB010EC0A7019601280F391F411D511D31
:100B9000CA01B9019E0140E050E00E94C112C901A2
:100BA000CDB7DEB7E8E00C944413CF92DF92EF921A
:100BB000FF92A091FC01B091FD019C010E94FF12E7
:100BC0006B017C0185DF882359F0C701B6016158AC
:100BD0007F4F8F4F9F4F2FEF30E040E050E00AC033
:100BE000C701B60161507E4F8F4F9F4F2FEF33E00B
:100BF00040E050E00E94C112C901FF90EF90DF90E9
:100C0000CF9008958EDFD1CF1F93CF93DF9360DF16
:100C1000182F4FDF6AE070E086E0F4DFEC01812FEF
:100C20004EDFCE01880F991F8C0F9D1F0196969560
:100C30008795DF91CF911F910895E6CF0895909108
:100C40008803E0918303F0918403992311F0849148
:100C500001C080812FEB280F2A3110F4805E0895A7
:100C6000803249F49F012F5F3F4F309384032093DC
:100C70008303EF2B31F708951F93CF93DF93DFDFCB
:100C8000C0E0D0E01AE090ED980F9A30B0F49E01E9
:100C9000129FE001139FD00D1124C80FD11D87FDB5
:100CA000DA95E09780918303909184030196909365
:100CB000840380938303C3DFE6CFCE01DF91CF911E
:100CC0001F91089510926F0083E28093800081E16C
:100CD000809381001092820080E197E290938900D6
:100CE0008093880010928B0010928A00229A789448
:100CF00008958F929F92AF92BF92DF92EF92FF92F0
:100D00000F931F93CF93DF935C018B01D42E8091BF
:100D10008503811104C081E080938503D3DF1092A5
:100D20000702B7FE05C0E894B7F82AE0F22E02C029
:100D3000FF24F394E09081002E2D287FE22E48ECD2
:100D4000F49EC00111248A159B05E0F4E50151E1F0
:100D5000A51657E2B50610F0C0E1D7E2BE017695C0
:100D6000679580E090E06058794687469F4F4E0136
:100D7000A12CB12CA50194010E94C11259018E2D04
:100D8000816024C0C8E2FC9EC02D1124D0E0CA15A9
:100D9000DB0508F4E501BE01769567959E0140E00C
:100DA00050E08AE0F81207C080E090E0605E734493
:100DB00081449F4F06C080E090E060537D4E8C4E92
:100DC0009F4F0E94C11259018E2D8260882E2AE009
:100DD000F21207C0CE0105966AE070E00E949A12F6
:100DE000EB01C83E43E0D40759F09801DE010E94B0
:100DF000FF1228EE33E040E050E00E94E312890148
:100E000010926F0080928100B0928900A0928800B9
:100E100020918800309189004D2D403108F04FE03D
:100E200080E190E0841B9109A90102C05695479585
:100E30008A95E2F750938B0040938A0010938B03BE
:100E400000938A0386B38FEF86BB81E080936F00A7
:100E5000DF91CF911F910F91FF90EF90DF90BF90A6
:100E6000AF909F908F900895CF93DF93EB018F3FCA
:100E700011F0411105C040E0BE0188EE93E043C08F
:100E8000813130F050EF580F503618F05FE501C057
:100E900050E0852F6CE00E948E12682F74EF76036D
:100EA00090011124250F311D2C30310540F4F9013A
:100EB000EE0FFF1FE65EFD4F2081318102C020E072
:100EC00030E0873081F0082E02C0220F331F0A94D1
:100ED000E2F7823028F0C90105966AE070E00CC0A4
:100EE000C90190580CC0C90136E0880F991F3A9586
:100EF000E1F7029665E070E00E949A12CB01403162
:100F000008F04FE0BE01F5DEDF91CF910895A2E039
:100F1000B0E0EDE8F7E00C94201390900602809189
:100F20008703882321F060918603611117C077241D
:100F30007394B0ECAB2EBDE5BB2E1AE0612E04E03D
:100F4000802E80EDC82E87E0D82E94E0E92EF12C7B
:100F500004EF11E02FE0422E512C14C070E040E06D
:100F600088EE93E0C6DE109286030CC18636CCF57F
:100F7000813609F4A3C074F58C3309F45CC08E3358
:100F800079F493945CDE20918303309184032F5F86
:100F90003F4F3093840320938303853639F74FC046
:100FA000813209F086C080920602D0920502C0927A
:100FB0000402F0920302E0920202109301020093F5
:100FC00000025092FF014092FE0110928703A4E0BC
:100FD0009A2ED8CF833689F10CF473C010E082E0EA
:100FE00072C08D36A9F18CF4873679F15CF18C36BC
:100FF00009F05FC041DEBC019093030280930202BE
:1010000080910402909105024DC08237B1F144F401
:101010008F3609F04EC030DE982E80930602B2CF94
:10102000843771F1863709F044C026DE9093FF01C2
:101030008093FE01A7CF9A94A5CF10E01FC010E0C7
:1010400084E041C010E085E03EC010E087E03BC096
:10105000F6DD8C3619F41092870304C07092870372
:101060001092860320918303309184032F5F3F4FBA
:10107000309384032093830385CF11E080E023C065
:10108000FBDDBC01C5010E949A12669EC001679EED
:10109000900D112490930502809304026091020246
:1010A000709103020E949A127093010260930002F1
:1010B00069CF109284031092830364C010E089E02A
:1010C00002C010E08BE0082F9CE0999E000D1124D7
:1010D000B6DD982F977F933261F42091830330918E
:1010E00084032F5F3F4F30938403209383030F5F6C
:1010F000EFCF8D3269F420918303309184032F5F09
:101100003F4F3093840320938303015098DDF1CF48
:1011100060910002709101028153883048F4E090A0
:101120000402F0900502A8DDBC01C7010E949A12DA
:101130007B01F694E79469837A8381DD69817A8102
:101140008E3269F420918303309184032F5F3F4FE7
:1011500030938403209383036E0D7F1DEACF80912B
:101160008703882339F09B013695279520938603C2
:10117000621B71094091FE01112311F08FEF01C034
:10118000802F72DE2296E0E10C943C131F920F92A6
:101190000FB60F9211242F933F934F935F936F934A
:1011A0007F938F939F93AF93BF93EF93FF93809120
:1011B0008A0390918B039C012150310930938B035A
:1011C00020938A03892B09F510926F0078948091FF
:1011D0008100887F81608093810080E197E2909315
:1011E00089008093880010928B0010928A0081E021
:1011F000809307028091830390918403892B29F0C7
:1012000080918903811101C082DEFF91EF91BF912E
:10121000AF919F918F917F916F915F914F913F918E
:101220002F910F900FBE0F901F901895809107027D
:10123000882349F081E02091830330918403232B9C
:1012400019F480E0089581E00895F0CF0895109298
:101250006F0090938403809383031092880310920D
:10126000860355CEF4CF089510926F0090938403B7
:101270008093830381E0809388031092860347CE96
:10128000F3CF089580E090E0089581E090E06F93BF
:1012900064E06A95F1F76F910197C9F708950F938C
:1012A0001F93CF93DF931AB157985A98289AC0E0AA
:1012B000D0E0EBDF5C9AE9DF09B15C98E6DF5C9A8D
:1012C000E4DF5C98249607FF10C0AE0160E070E098
:1012D00080918C0390918D03A0918E03B0918F0328
:1012E000481759076A077B0720F31AB9DF91CF9196
:1012F0001F910F91089595B1282F217030E0220F92
:10130000331F482F467068E0469FA0011124242B0C
:101310009D7C292B25B99BB188708295807F9F7712
:10132000892B8BB95C9AB1DF5C98AFCFA0E0B0E0BD
:10133000ECE9F9E00C942913C82FD62EE42E809105
:10134000E603811104C081E08093E60351D0A7DF5A
:1013500014B1D5B1FAB00BB12898DD2011F05A9A2A
:1013600001C05A9894B1926394B9579A81E0E816F3
:1013700021F08C2F82958F70BEDF8C2F8F70BBDF9A
:10138000FAB80BB914B9D5B9CDB7DEB7E7E00C940C
:10139000451342E060E0CACF42E061E0C7CFA1E080
:1013A000B0E0E5EDF9E00C942A138C01660F660FAE
:1013B000660FE12CF12C8E2D860F80646983E9DFA6
:1013C000F801EE0DFF1D8491E7DF8FEFE81AF80AB0
:1013D0006981E8E0EE16F10471F72196E6E00C94DD
:1013E0004613DDCF0895D8CF089541E060E09ECF49
:1013F00080E197E2A0E0B0E080938C0390938D03AE
:10140000A0938E03B0938F03529A209A549A8EE140
:1014100090E034D383E0E9DF86E090E02FD383E0EF
:10142000E4DF82E090E02AD383E0DFDF82E090E037
:1014300025D382E0DADF82E090E020D388E2A9DFE2
:1014400088E0A7DF81E0A5DF86E0A3DF8CE0A1CF05
:1014500081E09FDF8091920390919303892BF9F0B3
:1014600060E0A0E2262F30E070910802809109022E
:1014700090E00197789FA001799F500D11242417C7
:1014800035074CF4E0919203F0919303E20FF31FC0
:10149000A0836F5FE7CF109290031092910308959D
:1014A000D7CF0895CF93DF93EC018991882311F072
:1014B00073DFFBCFDF91CF910895F4CF0895CF93E1
:1014C000DF93EC01FE018491882319F065DF2196FA
:1014D000F9CFDF91CF910895F2CF0895AAE0B0E05F
:1014E000E4E7FAE00C9428131AE05AE0C52ED12C58
:1014F000E12CF12C062FA70196010E94C112CA010E
:10150000B9011150E1E0F0E0EC0FFD1FE10FF11D1A
:10151000005D2AE0629F00191124008361157105A6
:101520008105910539F71A3050F4E1E0F0E0EC0F55
:10153000FD1FE10FF11D80812FDF1F5FF4CF2A9681
:10154000E8E00C944413CF92DF92EF92FF926B018C
:101550007C0197FF0AC0F094E094D094C094C11C21
:10156000D11CE11CF11C8DE217DFC701B601B6DF0B
:10157000FF90EF90DF90CF900895E5CF0895A5E01C
:10158000B0E0E5ECFAE00C942D13182F80E8898385
:1015900080EC8A8384E98B8384ED8C83FE01E60FE3
:1015A000F11D8181810F6D83F4DE109390036D81B5
:1015B000609391032596E3E00C944913FF920F93F7
:1015C0001F93CF93DF93C82F809192039091930341
:1015D000892B49F48C2F992787FD9095CDB7DEB7DD
:1015E000E5E00C944713CA3009F43DC0C830C1F49B
:1015F000809190038150809390038F3F51F48091AC
:1016000091038150809391038091080281508093CF
:101610009003809191038F3FB9F51092910332C0EE
:101620008C2FBADE809191038823A1F090E001977E
:1016300040910802489F9001499F300D11248091EC
:101640009003E0919203F0919303E20FF31FE80FF0
:10165000F11DC083809190038F5F809390039091E0
:1016600008028913B7CF40919103842F90E0209115
:10167000090230E0215031098217930759F04F5F7A
:101680004093910310929003609191038091900395
:1016900076DFA0CFD0E060910902862F90E002971C
:1016A0002D2F332727FD3095281739077CF56D2F0F
:1016B00080E065DFF12C20910802F21628F50F2D4D
:1016C00010E03D2F3203C0011124E0919203F0910C
:1016D0009303E00FF11FE80FF91F80815DDEE091B9
:1016E0009203F0919303209108023D2F3203C00131
:1016F0001124E00FF11FE80FF91FDF01A20FB11D48
:101700008C918083F394D7CFDF5FC5CF623038F4FC
:1017100060910902615080E032DFD0E037C0625052
:1017200080E02DDFD0E060E2F62E40910802D41771
:1017300078F70D2F10E02091090230E02250310996
:10174000429FC001439F900D1124E0919203F091BC
:101750009303E00FF11FE80FF91F80811DDE209138
:10176000090230E02250310940910802429FC00135
:10177000439F900D1124E0919203F0919303E00FA9
:10178000F11FE80FF91FF082DF5FCFCF80910802D1
:10179000D81708F077CF80E2FFDDDF5FF7CFEFCE1D
:1017A00008958091920390919303009711F00E9405
:1017B000F313209108028091090290E00197AC0197
:1017C000249FC001259F900D112475D790939303FA
:1017D00080939203892B09F160E0A0E2262F30E08C
:1017E000709108028091090290E00197789FA00112
:1017F000799F500D1124241735074CF4E091920382
:10180000F0919303E20FF31FA0836F5FE7CF62E4D1
:1018100079E08EED9AE00C947C140895C2CF08957F
:10182000883058F491E001C0990F8A95EAF7892F22
:10183000AAE2B0E0EBE2F0E021C08E3060F498EF75
:10184000980F81E001C0880F9A95EAF7A4E2B0E012
:10185000E5E2F0E013C0853160F492EF980F81E08B
:1018600001C0880F9A95EAF7A7E2B0E0E8E2F0E05D
:1018700005C080E0A0E0B0E0E0E0F0E06F3F19F4E8
:101880009081982709C0662319F09081982B04C095
:101890002081982F9095922390839C91982B9C93D4
:1018A000089583EF8093B00084BD82E08093B100FF
:1018B00085BD1092B4001092B30018BC17BC60E054
:1018C00086E0AEDF60E085E0ABDF60E08BE0A8DFC4
:1018D00060E083E0A5CF8091E703811104C081E03F
:1018E0008093E703DECF0895CF93DF93EC01F3DF1E
:1018F000D7FF05C0D195C195D10981E001C080E035
:10190000CF3FD10519F014F0CFEFD0E0882319F0C4
:1019100018BCC7BD02C0C8BD17BCDF91CF910895E8
:10192000CF93DF93EC01D7DFD7FF05C0D195C195E9
:10193000D10981E001C080E0CF3FD10519F014F05A
:10194000CFEFD0E0882329F01092B400C093B30009
:1019500004C0C093B4001092B300DF91CF910895FA
:10196000CF93DF93EB01C0DFCE01DADFDF91CF91C0
:101970000895F6CF089584B18D7C84B985B18263D2
:1019800085B985E090E06F9364E06A95F1F76F9117
:101990000197C9F708958091E803811104C081E09F
:1019A0008093E803E8CF0895CF93C82FF4DF83B185
:1019B0008C23E9F38AE090E061D083B18C23B9F302
:1019C00083B18C23CF910895EFCF0895A1E0B0E0CB
:1019D000EBEEFCE043C68983DEDF93B1909589810D
:1019E00089232196E2E056C6F1CF08952F928F9376
:1019F0009F932FB680919B0390919C0301968093B7
:101A00009B0390939C0390E080919D03891F80939A
:101A10009D03909195039C5F90939503809194030F
:101A200080519742C0F090939503809394038091E6
:101A30009603909197030196809396039093970352
:101A400090E080919803891F809398038091990377
:101A5000891F809399032FBE9F918F912F90189586
:101A600028EE33E0019748F0F9016F9364E06A953E
:101A7000F1F76F913197C9F7F5CF0895F1CF089538
:101A8000E0E7F0E080818E7F8083A0EBB0E08C9176
:101A900083608C93A1EBB0E08C91807F8C938C91D0
:101AA00082608C93B89A8081816080837894089555
:101AB0008091E903811104C081E08093E903E0CFC4
:101AC0000895F6DFE0E7F0E080818E7F808310925A
:101AD0009603109297031092980310929903109214
:101AE0009503109294038081816080830895682F0C
:101AF0008EE993E0BFC3462F20E0BC018EE993E05E
:101B000083C40F93CF93DF9300D000D01F92CDB743
:101B1000DEB79C0185E0E2E3F2E0DE011196019080
:101B20000D928A95E1F7662311F00FEF01C003E1F2
:101B300045E0BE016F5F7F4F8EE993E0A8D08EE94C
:101B400093E07ED0BEDF0F900F900F900F900F901C
:101B5000DF91CF910F91089560E0D3CF8EE993E0AC
:101B6000C3C46F9364E06A95F1F76F910197C9F769
:101B70000895FC0111821082138212821582148250
:101B80001682683068F489E290E0918380838BE26A
:101B900090E0938382838AE290E0958384831FC0E0
:101BA0006E3070F483E290E09183808385E290E070
:101BB0009383828384E290E09583848368500FC08E
:101BC000653198F486E290E09183808388E290E02A
:101BD0009383828387E290E0958384836E5081E0D3
:101BE00001C0880F6A95EAF786830895A7E0B0E000
:101BF000EBEFFDE031C58C01FC01118210821382F4
:101C000012821582148217821682613118F080E1E7
:101C1000808702C0FC016087F801208B642FCE0111
:101C20000196A7DF8F81F80181878B819C81938743
:101C300082878D819E81958784872796E4E028C5D9
:101C4000FC01A485B585109771F08C919185892B45
:101C50008C93A285B3859C918185809589238C93F3
:101C600088EC90E07ECF0895FC01A485B58510979F
:101C700069F08C919185892B8C93A285B3858C9189
:101C80009185892B8C9388EC90E06BCF0895A7E029
:101C9000B0E0ECE4FEE0D5C47C014B01642F3901D7
:101CA000402F20E0A3DF87010F5B1F4FF801108258
:101CB0006701F2E4CF0ED11CF60110825701F3E464
:101CC000AF0EB11CF5011082F70177866686512CA4
:101CD000F7018085581648F5652C712CF401E60D46
:101CE000F71D6081CE01019644DF2F81F701E60DDB
:101CF000F71D218B89819A81F301EE0FFF1FEE0DF5
:101D0000FF1D92A381A38332910511F4F80108C04D
:101D10008632910511F4F60103C0899721F4F5018B
:101D20008081822B80835394D3CF2796EFE0A5C484
:101D3000A0E0B0E0EDE9FEE086C4EC015B016C01DF
:101D400081E4C80ED11CF60180807E01F2E4EF0E22
:101D5000F11CF70170808E010D5B1F4FF801908020
:101D600080E09885891748F4F501E80FF11DE80F28
:101D7000F11D118210828F5FF4CF84B1F601908142
:101D8000892B84B987B1F7019081892B87B98AB1F2
:101D9000F8019081892B8AB985B1F6019081892B50
:101DA00085B988B1F7019081892B88B98BB1F80189
:101DB0009081892B8BB98AE090E0D3DE94B1F60153
:101DC00080818095892384B997B1F70180818095BE
:101DD000892387B99AB1F8018081809589238AB9CE
:101DE00095B1F60180818095892385B998B1F70175
:101DF00080818095892388B99BB1F8018081809585
:101E000089238BB9E090B000D090B1008091B000F0
:101E100083608093B00082E08093B1004091B20073
:101E200080E090E02E853F858217930720F5C090D3
:101E3000B2002C2D241B820F911D03B1081132C05A
:101E4000F6B0F7102FC029B129112CC010C0212FD6
:101E500030E0A901440F551FF501E40FF51F608123
:101E60007181672B21F11F5F2885121780F37F2C6A
:101E7000802E4C2DD7CFE092B000D092B10020E060
:101E80008885281730F5F501E20FF11DE20FF11DED
:101E900080819181892B21F48E859F859183808318
:101EA0002F5FEECF03B1F6B099B010E0DDCFDE01C9
:101EB000A40FB51F91960D90BC91A02D4C91DE0101
:101EC000A20FB31F51962C91422369F69183808310
:101ED000CACFCDB7DEB7EDE0D2C3EF92FF920F933A
:101EE0001F93CF93DF93FC019B01F0907C00009146
:101EF0007A0047B118B180917A0086FDFCCF80E06E
:101F00009085891748F4D901A80FB11DA80FB11DFC
:101F10001D921C928F5FF4CF97B182A18095892387
:101F200087B998B182A18095892388B987E8809381
:101F30007A00E12C81A1E81610F0E12C29C050E0D4
:101F40008085581718F5A52FB0E0EF01CA0FDB1FE9
:101F50008989806480937C0080917A00806480937A
:101F60007A0080917A0086FDFCCF609178007091B4
:101F70007900AA0FBB1FA20FB31F8D919C911197DF
:101F8000860F971F8D939C935F5FDACFE394D2CF38
:101F90008085E81698F4E901CE0DD11DCE0DD11D36
:101FA00061A170E0CB0195958795A881B9818A0FD1
:101FB0009B1FC0D279836883E394EACFF0927C00C0
:101FC00000937A0018B947B9CDB7DEB7E6E05EC333
:101FD000A0E2B0E0EDEEFFE03CC38C017B01D42E2B
:101FE0008FEF840F823010F4C8013EDED801509686
:101FF0008C91B70181110DC0C8019ADEC80120DEA5
:10200000B2E0DB1236C0BE016F5F7F4FC80190DEC9
:102010000CC0C80162DFC80113DEE2E0DE1229C095
:10202000BE016F5F7F4FC80158DF40E0F801808537
:102030004817F8F4842F90E0880F991FF701E80FF4
:10204000F91F21E030E02C0F3D1F820F931FD801B4
:102050001E962D913C911F97DC018D919C91281B20
:10206000390B80819181820F931F918380834F5F11
:10207000DDCFA096E7E009C32F923F925F926F9267
:102080007F928F929F92AF92BF92CF92DF92EF9208
:10209000FF920F931F93CF93DF93CDB7DEB7C05658
:1020A000D1090FB6F894DEBF0FBECDBF8C014B0136
:1020B0005A01522EDA018D919C91892B31F0F40155
:1020C00080819181892BE9F423C0D80118968C91E5
:1020D00090E0880F991FEFD2F501918380830097DC
:1020E00009F4AFC0FC0120E030E0D80118968C91D3
:1020F00090E0281739071CF7119211922F5F3F4F7C
:10210000F4CFE12CF12C6E01B1E2CB0ED11C20C03A
:10211000F801808590E0880F991FCDD2D4018D936E
:102120009C93009709F48DC0FC0120E030E0D801B9
:1021300018968C9190E0281739071CF7D8011E9645
:102140008D919C911F97819391932F5F3F4FEFCF7C
:10215000452DBE016F5B7F4FC8013ADFF8016084F7
:10216000712CFE01EF5BFF4FC6019E012F5F3F4FB9
:10217000190120E030E0261537054CF5E114F10493
:1021800089F0DC016D917C91408151816417750764
:1021900048F0D1016D917C914081518146175707DC
:1021A00048F00DC040815181DC014D935C93E114F6
:1021B000F10479F740815181D1014D935C932F5FF8
:1021C0003F4FB2E02B0E311C32960296D4CFEFEF88
:1021D000EE1AFE0AFAE0EF16F10409F0B9CF9E01FB
:1021E0002F5F3F4F7901360180E090E0F8012085B4
:1021F00030E0821793072CF5D7012D913D917D0199
:10220000B3016C197D09D501ED91FC91E60FF71F23
:10221000408151814217530710F431832083F30129
:10222000219131913F01D401ED91FC91E60FF71F0F
:10223000408151812417350710F4318320830196A2
:10224000D5CFC05ADF4F0FB6F894DEBF0FBECDBF5B
:10225000DF91CF911F910F91FF90EF90DF90CF9082
:10226000BF90AF909F908F907F906F905F903F90C6
:102270002F9008951F93CF93DF93EC01162F8FEFCC
:10228000860F823018F0662351F012C021E0AE01B3
:102290004E5F5F4FBE01CE01EFDE123049F4AE015A
:1022A0004A5F5F4FBE016C5F7F4F20E0CE01E4DEEE
:1022B000DF91CF911F910895A0E0B0E0E1E6F1E158
:1022C000C6C1EC018B01B42E842F8D7F51F48C811B
:1022D0009D81892B09F494C08E819F81892B09F4FB
:1022E0008FC08FEF8B0D823050F488819981892BBC
:1022F00009F486C08A819B81892B09F481C04B2D0A
:10230000B801CE0165DE780100E010E0C12CD12CCF
:10231000888590E0C816D9060CF072C081E0B8122A
:102320000AC0EA81FB81E00FF11F0190F081E02DEE
:10233000A881B9810DC08C819D812E813F81B11012
:102340000CC0F901E00FF11F0190F081E02DDC01DC
:10235000A00FB11F8D919C9128C0FC01E00FF11FCF
:1023600040815181E881F981E00FF11F80819181E5
:10237000EE85FF854817590710F4CF0104C08E0F72
:102380009F1F841B950BD901A00FB11F2D913C916C
:10239000AA81BB81A00FB11F4D915C912417350715
:1023A00020F0E40FF51FE21BF30BE81BF90B99F08B
:1023B000D7012D913C9140E050E0281B390B410999
:1023C0005109A8EEB3E02AD19F0140E050E0FBD0D4
:1023D00037FD0AC002C020E030E0293EB3E03B07F1
:1023E0002CF028EE33E002C020E030E0F70121932A
:1023F00031937F01FFEFCF1ADF0A0E5F1F4F88CFA7
:10240000CDB7DEB7E9E03FC1A0E0B0E0E9E0F2E13E
:1024100015C1EC018B01822E4FDF2884E801412C8D
:10242000512C320100E010E0C12CD12C7601312C6E
:10243000912C58EEA52E53E0B52E921419F1E99186
:10244000F991882021F0C5018E1B9F0BFC01E93C0E
:10245000F10524F4E333F1056CF002C03324339426
:10246000DF01A3019201E4D0C60ED71EE81EF91EBB
:102470000E0F1F1F939498EE490E93E0591E611C96
:10248000711CDBCF31101EC0492D50E04150510965
:1024900024EF31E0429FC001439F900D529F900D69
:1024A00011242091E2033091E30328173907ACF09F
:1024B00088EE93E0489F9001499F300D589F300D62
:1024C00011240DC0980140E050E0C701B60159D079
:1024D0003093E3032093E20302C020E030E0C9011F
:1024E000CDB7DEB7E2E1C6C0CF93DF93EC018A81BE
:1024F0009B81009709F077D18E819F81009709F029
:1025000072D188819981009709F06DD18C819D816C
:10251000009709F068D1DF91CF910895991B79E078
:1025200004C0991F961708F0961B881F7A95C9F763
:1025300080950895AA1BBB1B51E107C0AA1FBB1FB2
:10254000A617B70710F0A61BB70B881F991F5A953F
:10255000A9F780959095BC01CD01089597FB072EB2
:1025600016F4009406D077FD08D0E4DF07FC05D010
:102570003EF4909581959F4F0895709561957F4F9A
:102580000895A1E21A2EAA1BBB1BFD010DC0AA1FB4
:10259000BB1FEE1FFF1FA217B307E407F50720F0CC
:1025A000A21BB30BE40BF50B661F771F881F991F47
:1025B0001A9469F760957095809590959B01AC0190
:1025C000BD01CF010895052E97FB16F400940FD09E
:1025D00057FD05D0D6DF07FC02D046F408C0509561
:1025E0004095309521953F4F4F4F5F4F08959095FF
:1025F0008095709561957F4F8F4F9F4F0895A29F53
:10260000B001B39FC001A39F700D811D1124911DC6
:10261000B29F700D811D1124911D0895F0DFA59FBB
:10262000900DB49F900DA49F800D911D11240895CD
:10263000B7FFF4CFF3DF821B930B08952F923F92E5
:102640004F925F926F927F928F929F92AF92BF92C2
:10265000CF92DF92EF92FF920F931F93CF93DF936E
:10266000CDB7DEB7CA1BDB0B0FB6F894DEBF0FBECB
:10267000CDBF09942A88398848885F846E847D8418
:102680008C849B84AA84B984C884DF80EE80FD801A
:102690000C811B81AA81B981CE0FD11D0FB6F89490
:1026A000DEBF0FBECDBFED010895EE0FFF1F0590F9
:1026B000F491E02D09940F931F93CF93DF93823011
:1026C000910510F482E090E0E0910804F091090493
:1026D00020E030E0A0E0B0E0309719F14081518176
:1026E0000281138148175907C8F08417950769F4C8
:1026F000109731F012960C93129713961C9327C0E3
:10270000009308041093090422C02115310519F023
:102710004217530718F49A01BD01EF01DF01F801D8
:10272000DBCF21153105F9F0281B390B2430310599
:1027300080F48A819B816115710521F0FB019383EF
:10274000828304C09093090480930804FE013296AA
:1027500044C0FE01E20FF31F81939193225031098F
:10276000398328833AC02091060430910704232B33
:1027700041F420910C0230910D0230930704209314
:10278000060420910A0230910B022115310541F413
:102790002DB73EB740910E0250910F02241B350B0E
:1027A000E0910604F0910704E217F307A0F42E1B52
:1027B0003F0B2817390778F0AC014E5F5F4F2417A5
:1027C000350748F04E0F5F1F5093070440930604EF
:1027D0008193919302C0E0E0F0E0CF01DF91CF91CF
:1027E0001F910F910895CF93DF93009709F481C053
:1027F000FC01329713821282A0910804B09109045F
:10280000109781F420813181820F931F209106045B
:10281000309107042817390751F5F0930704E09326
:10282000060467C0ED0120E030E0CE17DF0740F47A
:102830004A815B819E0141155105F1F0EA01F5CF16
:10284000D383C28340815181840F951FC817D90754
:1028500059F488819981840F951F02969183808312
:102860008A819B81938382832115310529F4F0931A
:102870000904E09308043DC0E901FB83EA83499120
:102880005991C40FD51FEC17FD0761F48081918128
:10289000840F951F0296E901998388838281938131
:1028A0009B838A83E0E0F0E012968D919C911397D0
:1028B000009719F0FD01DC01F7CF8D919C911197E4
:1028C0009D012E5F3F4F820F931F20910604309190
:1028D00007042817390769F4309729F4109209047E
:1028E0001092080402C013821282B0930704A093CE
:1028F0000604DF91CF9108950F931F93CF93DF9339
:10290000009731F46115710519F480E090E039C049
:102910008B01EC016EE070E081E090E04CD2FC01B4
:10292000892B99F380E883830115110571F01387D2
:10293000028781E8838380910A0490910B04892B9C
:1029400021F4F0930B04E0930A042097C9F0D18797
:10295000C08783818260838380910C0490910D04F1
:10296000892B71F4F0930D04E0930C0480910E0414
:1029700090910F04892B21F4F0930F04E0930E043F
:10298000CF01DF91CF911F910F910895A0E0B0E0AA
:10299000EBECF4E163CEAE014B5F5F4FFA01619166
:1029A0007191AF0180910C0490910D0432D0E2E05E
:1029B00071CE0F931F93CF93DF93E0910C04F091AE
:1029C0000D04238121FF1BC08C01D0E0C0E0F80181
:1029D00081918F0160910C0470910D04DB011896B8
:1029E000ED91FC911997882331F00995892B79F3A2
:1029F000DFEFCFEFECCF8AE00995892B19F08FEF4D
:102A00009FEF02C08D2F9C2FDF91CF911F910F91CF
:102A10000895ABE0B0E0EEE0F5E110CE6C017B0193
:102A20008A01FC0117821682838181FFBFC1CE011A
:102A300001963C01F6019381F70193FD859193FF87
:102A400081917F01882309F4ADC1853239F493FD6A
:102A5000859193FF81917F01853221F4B60190E049
:102A6000E1D1E8CF912C212C312CFFE1F315D8F0E6
:102A70008B3279F038F4803279F08332A1F4232D4F
:102A800020611DC08D3261F0803369F4232D2160F7
:102A900016C0832D8260382EE32DE4603E2E2AC0BE
:102AA000F32DF8601DC037FC2DC020ED280F2A3013
:102AB00040F08E32B9F436FC75C1232D2064322EDD
:102AC00019C036FE06C08AE0989E200D1124922E71
:102AD00011C0EAE02E9E200D1124222EF32DF0626B
:102AE0003F2E08C08C3621F4832D8068382E02C01A
:102AF000883641F4F70193FD859193FF81917F0121
:102B00008111B3CF982F9F7D9554933028F40C5F9B
:102B10001F4F9FE399830DC0833631F0833771F0E7
:102B2000833509F055C020C0F801808189830E5F8C
:102B30001F4F88248394912C530112C02801F2E086
:102B40004F0E511CF801A080B18036FE03C0692DE4
:102B500070E002C06FEF7FEFC50159D14C018201D7
:102B6000F32DFF773F2E15C0280122E0420E511CA5
:102B7000F801A080B18036FE03C0692D70E002C06C
:102B80006FEF7FEFC50131D14C01F32DF0683F2E7F
:102B9000820133FC19C0822D90E088169906A0F4BA
:102BA000B60180E290E03ED12A94F5CFF50137FCE2
:102BB000859137FE81915F01B60190E033D12110FC
:102BC0002A9421E0821A91088114910479F7E1C0D6
:102BD000843611F0893639F5F80137FE07C0608177
:102BE0007181828193810C5F1F4F08C06081718168
:102BF000072E000C880B990B0E5F1F4FF32DFF76ED
:102C00003F2E97FF09C090958095709561957F4FF5
:102C10008F4F9F4FF0683F2E2AE030E0A3013ED156
:102C2000882E861844C0853731F4232D2F7EB22E8E
:102C30002AE030E025C0932D997FB92E8F36C1F060
:102C400018F4883579F0AEC0803719F0883721F054
:102C5000A9C0E92FE061BE2EB4FE0DC0FB2DF460CB
:102C6000BF2E09C034FE0AC0292F2660B22E06C02E
:102C700028E030E005C020E130E002C020E132E091
:102C8000F801B7FE07C060817181828193810C5F7A
:102C90001F4F06C06081718180E090E00E5F1F4F82
:102CA000A301FCD0882E8618FB2DFF773F2E36FE21
:102CB0000DC0232D2E7FA22E891458F434FE0BC094
:102CC00032FC09C0832D8E7EA82E05C0B82CA32C03
:102CD00003C0B82C01C0B92CA4FE0FC0FE01E80D42
:102CE000F11D8081803321F49A2D997EA92E09C08F
:102CF000A2FE06C0B394B39404C08A2D867809F06E
:102D0000B394A3FC10C0A0FE06C0B21480F4280C3B
:102D1000922C9B180DC0B21458F4B60180E290E0DA
:102D200081D0B394F8CFB21418F42B1802C0982CA9
:102D3000212CA4FE0FC0B60180E390E073D0A2FE68
:102D400016C0A1FC03C088E790E002C088E590E0CF
:102D5000B6010CC08A2D867851F0A1FE02C08BE22C
:102D600001C080E2A7FC8DE2B60190E05BD089143F
:102D700030F4B60180E390E055D09A94F8CF8A946D
:102D8000F301E80DF11D8081B60190E04BD0811078
:102D9000F6CF222009F44ECEB60180E290E042D078
:102DA0002A94F7CFF6018681978102C08FEF9FEFBB
:102DB0002B96E2E15FCC0F931F93CF93DF93869F17
:102DC0008001879F100D969F100D1124C80173DCA0
:102DD000EC01009721F0A80160E070E011D0CE0175
:102DE000DF91CF911F910F910895FC0105906150E3
:102DF00070400110D8F7809590958E0F9F1F089511
:102E0000DC0101C06D9341505040E0F70895FC0192
:102E10006150704001900110D8F7809590958E0F09
:102E20009F1F08950F931F93CF93DF93FB0123817F
:102E300021FD03C08FEF9FEF2CC022FF16C04681FB
:102E40005781248135814217530744F4A081B18111
:102E50009D012F5F3F4F318320838C9326813781E3
:102E60002F5F3F4F3783268314C08B01EC01FB019A
:102E70000084F185E02D0995892BE1F6D80116969D
:102E80008D919C911797019617969C938E93169708
:102E9000CE01DF91CF911F910F910895FA01AA27DA
:102EA000283051F1203181F1E8946F936E7F6E5F8D
:102EB0007F4F8F4F9F4FAF4FB1E03ED0B4E03CD03B
:102EC000670F781F891F9A1FA11D680F791F8A1F1E
:102ED000911DA11D6A0F711D811D911DA11D20D085
:102EE00009F468943F912AE0269F11243019305D3F
:102EF0003193DEF6CF010895462F4770405D419330
:102F0000B3E00FD0C9F7F6CF462F4F70405D4A337C
:102F100018F0495D31FD4052419302D0A9F7EACF44
:102F2000B4E0A6959795879577956795BA95C9F773
:102F300000976105710508959B01AC010A2E069466
:102F40005795479537952795BA95C9F7620F731F1F
:102F5000841F951FA01D089510E0C6E5D0E003C0B2
:102F6000FE01A3DB2196C735D107D1F7F894FFCF37
:102F700001010101015858586400010005000100D9
:102F800001000100460032000800070001000100B6
:102F9000010001000100010001000100010000002A
:102FA000000000000000000000000100010000001F
:102FB000000000000000000000000100010000000F
:102FC00000000000000000000000010001000000FF
:102FD00000000000000000000000010001000000EF
:102FE00000000000000000000000010001000100DE
:102FF00001000100010001000100010001000100C9
:1030000001000100010001000100010001000000B9
:1030100000000100000000000000010001000000AD
:10302000000001000000000000000100010000009D
:10303000000000000000010001000100010000008C
:10304000000001000000000000000100010000007D
:10305000000001000000000000000100010001006C
:1030600001000100010001000100010088130F00B0
:10307000F4010400D007040108020000100420003D
:10308000200000010203040506FF9C01B501CF01E9
:10309000EA0107022602470269028E02B502DE0239
:1030A0000A030E0F1011126D5600507265737320D3
:1030B0004200476F210068656C6C6F000A776F7281
:1030C0006C64002052200020442000204C20002866
:1030D00025642C256429002072204C000A6E6F7430
:1030E00068696E6700207220530020722052002011
:1030F00072205320000A5645524946494341522006
:103100005455524E205520003E3E61333200666FCA
:0E311000756E64004E6F207461726765740006
:00000001FF
