:1000000056C0000070C000006EC000006CC0000050
:100010006AC0000068C0000066C0000064C0000044
:1000200062C000000C943D0E5EC000005CC0000089
:100030005AC000000C940C0A56C0000054C00000C6
:1000400052C0000050C000004EC000004CC0000074
:100050004AC0000048C0000046C0000044C0000084
:1000600042C0000040C000004C3136206364656728
:1000700072656734003E6733323E3E633332005070
:100080006C616E6E696E6700506174680033F720B2
:10009000526F626F740020506F6C6F6C75000000BF
:1000A00000000000001F1F1F1F1F1F1F200F112413
:1000B0001FBECFEFD8E0DEBFCDBF12E0A0E0B1E0C1
:1000C000E8E9F4E302C005900D92A83FB107D9F723
:1000D00024E0A8EFB2E001C01D92AE35B207E1F70F
:1000E0002BD60C94401A8CCF809100018F5F8093A7
:1000F00000010895AAE0B0E0E0E8F0E00C949E145E
:1001000080ED97E00E941E0FA6D086E990E00E9445
:10011000B20B61E080E00E94150D8DE890E00E9436
:10012000B20B85E790E00E94860A88EE93E00E9479
:10013000850E0E94960B88E890E00E94B20B61E069
:1001400080E00E94150D8FE790E00E94B20B88EED0
:1001500093E00E94850E80E10E943B0E811119C040
:10016000B2D68C010E94960BB801110F880B990B27
:100170000E94030C87E392E00E94A30B61E080E001
:100180000E94150D8AE392E00E94A30B84E690E0A2
:10019000E0CF80E10E942B0E88EE93E00E94850E56
:1001A0000CEE1FEF0832110528F06CEE7FEF84E1B2
:1001B00090E004C064E170E08CEE9FEF0E94000EBE
:1001C00081E00E94E90E84E190E00E94850E0F5FBD
:1001D0001F4F0C33110531F760E070E080E090E0D4
:1001E0000E94000E80E10E943B0E811119C061E067
:1001F000CE0101960E94ED0E8C010E94960BB80173
:1002000080E090E00E94030C61E080E00E94150D08
:10021000CE01019645D084E690E00E94850EE2CFA3
:1002200080E10E942B0E0E94960B82E492E00E94D5
:10023000A30B88E690E00E94860A0E946B0A811157
:10024000FCCF2A96E4E00C94BA14809101018F5FF0
:1002500080930101089560E08EE990E00E94370BE1
:1002600061E08FE990E00E94370B62E080EA90E065
:100270000E94370B63E081EA90E00E94370B64E054
:1002800082EA90E00E94370B65E083EA90E00E94EA
:10029000370B66E084EA90E00E94370B0C94960BD3
:1002A000AAE0B0E0E6E5F1E00C949A148C017C0140
:1002B0008AE0E80EF11C85E6C82ED12C8AE0E0E148
:1002C000F2E0DE01119601900D928A95E1F7F801B6
:1002D000819191918F01B6010E940C14E1E0F0E050
:1002E000EC0FFD1FE60FF71F80810E94390B0E15E2
:1002F0001F0521F72A96E8E00C94B6148F3F29F4E5
:100300009BB182E089278BB905C0882311F0599AE7
:1003100001C05998519A0895809102018F5F80938E
:100320000201089580E0EADF84E690E00C94850EF7
:10033000CF92DF92EF92FF9281E0E0DF8AE090E0DF
:100340006F9364E06A95F1F76F910197C9F780E0C8
:10035000D5DF489BFECF0E94D10E6B017C014899EE
:10036000FECF0E94D10EDC01CB018C199D09AE0994
:10037000BF09BC01CD0122E0660F771F881F991FBE
:100380002A95D1F728EC35E040E050E00E94331484
:10039000CA01B9010E94FE1423E333E34BEC51E49C
:1003A0000E9464150E94CD14CB01FF90EF90DF9066
:1003B000CF900895AAE0B0E0E0EEF1E00C94901444
:1003C000812C912C540100E010E030E1432E37E203
:1003D000532E612C712C44E1242E312C54E6C52E71
:1003E000D12C61E0CE0101960E94ED0E805D974018
:1003F0007C01092E000CAA0BBB0B880E991EAA1EAD
:10040000BB1EC701801B910B8C01000F111F080F31
:10041000191F17FF02C00F5F1F4F15950795C501E4
:10042000B401A30192010E945514200F311FC7018E
:10043000B1010E942014C901860F971F85369105CE
:1004400074F48C392FEF92071CF097FF0AC002C09A
:100450008CE99FEF64E670E08C599F4F07C084E6FB
:1004600090E0B601681B790B84E690E00E94000ED4
:1004700089819A81893C9105A0F08B819C81893C7E
:10048000910578F08D819E81893C910550F08F8196
:100490009885893C910528F089859A85893C910544
:1004A00010F487019ECF60E070E080E090E00E9451
:1004B000000E80E090E02A96E2E10C94AC1480916A
:1004C00003018F5F8093030108958C3449F08235D6
:1004D00061F08234A1F46CEE7FEF84E190E009C01A
:1004E00060E570E080EB9FEF04C060EB7FEF80E59C
:1004F00090E00E94000E80E991E00C94850E089532
:10050000809104018F5F809304010895E091F802C7
:10051000F0E0E750FD4F10820E94960B89EF92E0C9
:100520000E94A30B8091F802893040F061E080E0E6
:100530000E94150D81E093E00C94A30B0895841B99
:10054000950B97FF03C0919581959109621B730BE1
:1005500077FF03C0719561957109860F971F089504
:10056000A4E0B0E0E6EBF2E00C9490140E94550D8C
:100570000E94960B88EC90E00E94850E86E492E043
:100580009F938F930E945A1788EC90E00E94850EEB
:100590008CE492E09F938F930E945A1780ED97E02E
:1005A0000E94850E0E94960B60910C0170910D01C6
:1005B000A0901801B09019010F900F900F900F901C
:1005C0006A157B05F4F080911201909113019093CC
:1005D00047048093460480911001909111019093FB
:1005E00049048093480412E0812E912C03EA202EC6
:1005F00002E0302E44244394512C66246394712CE1
:10060000BEC020900E0130900F0180901A01909092
:100610001B0128143904BCF637FCD5CF77FDD3CFA6
:10062000409016015090170181E693E09A838983E8
:100630000CE811E040E050E04815590524F6E98146
:10064000FA8120E030E07A01E218F308662477248A
:100650006E187F082A153B0514F56701F7FC630146
:10066000C901861B970B97FF03C09195819591094E
:100670008C0D9D1D918380836901CC0CDD1CC00E07
:10068000D11ED601CD90DC90CA94CD2821F4840DE2
:10069000951D918380832F5F3F4F3296DBCF4F5F55
:1006A0005F4FE981FA817096FA83E983005F1F4FFB
:1006B000C3CF61E08AE494E00E94ED0E80914A0489
:1006C00090914B04893C910508F429C280914C0417
:1006D00090914D04893C910508F421C280914E040B
:1006E00090914F04893C910508F419C280915004FF
:1006F00090915104893C910508F411C280915204F3
:1007000090915304893C910508F409C28BEA92E068
:10071000EFD66CE370E08CE390E00E94000E8CE278
:1007200091E00E94850E60E070E080E090E00E9421
:10073000000E8BEA92E0DCD680915D0390915E031F
:10074000892B09F013C280910601809307018091E3
:1007500046049091470420910E0130910F01E091E1
:100760004804F09149048217930709F4AAC2209122
:100770001801309119012E173F070CF4C4C2D6D7C7
:1007800040914604509147045A01F1E0AF1AB10874
:100790008091480490914904F50173E0EE0FFF1F2A
:1007A0007A95E1F7E80FF91FEE0FFF1FDF01A45E56
:1007B000BE4F6D917C91EF59FC4F20910A01309111
:1007C0000B016230710561F40190F081E02DE20FC0
:1007D000F31F60911401709115016E0F7F1F04C00B
:1007E00060817181620F731F70933F0460933E04B8
:1007F0008C010F5F1F4FBA01B3E0660F771FBA95E8
:10080000E1F77C836B83DB01A00FB11FFD01EE0FCD
:10081000FF1FDF01A45EBE4F6D917C91DF01AF59D8
:10082000BC4F6230710561F40D90BC91A02DA20FF8
:10083000B31F60911401709115016A0F7B1F04C0F2
:100840006D917C91620F731F70934104609340041B
:100850004F5F5F4FDA0173E0AA0FBB1F7A95E1F794
:10086000A80FB91FFD01EE0FFF1FBF01645E7E4F91
:10087000DB016D917C91DF01AF59BC4F6230710596
:1008800061F40D90BC91A02DA20FB31F60911401D3
:10089000709115016A0F7B1F04C06D917C91620FEE
:1008A000731F7093430460934204FC013197FA83F1
:1008B000E983DF016B817C81A60FB71FFD01EE0F7D
:1008C000FF1FBF01645E7E4FDB016D917C91DF01F4
:1008D000AF59BC4F6230710549F46D917C91260F80
:1008E000371F609114017091150102C06D917C91C8
:1008F000260F371F30934504209344042091380479
:1009000030913904BEE3EB2EB4E0FB2EA4E6B0E058
:1009100060E070E0F701C190D1907F01CA16DB065C
:1009200014F49B01D6016F5F7F4F6430710591F71E
:10093000B0930901A093080130933904209338043F
:10094000EB81FC81E80FF91FEE0FFF1FE45EFE4F05
:10095000918280822115310561F4B0924704A09202
:1009600046046FE972E07F936F930E945A1785E502
:100970002EC02130310561F41093490400934804DE
:10098000A3E5B2E0BF93AF930E945A1782E51FC060
:100990002230310561F4509347044093460467E5E3
:1009A00072E07F936F930E945A1784E410C0233043
:1009B000310589F4A981BA81B0934904A093480410
:1009C000EBE5F2E0FF93EF930E945A178CE48093DB
:1009D00006010F900F90809149048F9380914804F5
:1009E0008F93809147048F93809146048F9363EB9C
:1009F00072E07F936F930E945A170F900F900F90A1
:100A00000F900F900F9080910701823581F134F49F
:100A1000843409F449C08C3439F06CC08535B9F19F
:100A2000883509F457C066C080910601843441F4CA
:100A30008FE592E09F938F930E945A178CE414C025
:100A4000823519F484E692E028C08C3419F48BE6E0
:100A500092E030C0853509F04DC0A0E7B2E0BF9309
:100A6000AF930E945A1782E5809305011AC08091C6
:100A70000601843491F3823551F38C3429F465E70F
:100A800072E07F936F930BC08535A1F5D1CF809134
:100A90000601843431F58CE792E09F938F930E9496
:100AA0005A170F900F9026C080910601843441F4AC
:100AB00083E892E09F938F930E945A1783E5D4CFE7
:100AC000823509F4B5CF8C3441F2853599F489E843
:100AD00092E0E3CF80910601843419F480E992E03A
:100AE000DCCF823509F4B9CF8C3409F4A1CF853538
:100AF00009F4ADCF80910501E8DC60E070E080E0B2
:100B000090E00E94000E8091F802E82FF0E0E7509C
:100B1000FD4F9091050190838F5F8093F8024ADC2E
:100B20009093600380935F03892B09F4C2CD60E04A
:100B300070E080E090E00E94000EF8D53F922F9286
:100B40000E945A1782E4C1DC60E070E080E090E02F
:100B50000E94000E84EF91E00E94850EE7D570920E
:100B60005E0360925D030F900F90D9CFDFD5809127
:100B700049048F93809148048F93809147048F9309
:100B8000809146048F9381EB92E09F938F930E9414
:100B90005A1780914604909147042091480430915F
:100BA0004904AC0163E0440F551F6A95E1F7420F19
:100BB000531F440F551FFA01E457FE4F51824082E4
:100BC000FA01E45EFE4F9182808240913804509198
:100BD00039040F900F900F900F900F900F904115C8
:100BE0005105B1F43F932F9301969F938F938BEB15
:100BF00092E09F938F930E945A17809146049091A0
:100C000047040196909347048093460484E44CC0C3
:100C100041305105B9F4215031093F932F939F93EF
:100C20008F9386EC92E09F938F930E945A17809146
:100C30004804909149040197909349048093480493
:100C40008CE432C042305105B1F43F932F930197A9
:100C50009F938F9381ED92E09F938F930E945A17F9
:100C600080914604909147040197909347048093A4
:100C7000460485E519C043305105F1F42F5F3F4F1D
:100C80003F932F939F938F938CED92E09F938F933D
:100C90000E945A17809148049091490401969093BC
:100CA00049048093480482E5809306010F900F90D9
:100CB0000F900F900F900F9010925E0310925D03B3
:100CC00042CD20910C0130910D01E217F30709F09C
:100CD0004ECD23E0880F991F2A95E1F7E80FF91F01
:100CE000EE0FFF1FE45EFE4F82E090E09183808371
:100CF0001DD587EE92E00E946D1760E070E080E005
:100D000090E07ED715C020911A0130911B01281761
:100D100039070CF034CD8F3F9F4F0CF030CDEF3FB3
:100D2000FF4F0CF02CCD02D58DEE92E00E946D1796
:100D30002496E2E10C94AC14DDD912DCFFCFECE791
:100D4000F0E080818F7D80830895811101C0F7CF0D
:100D500080917C00806280937C00089580917C006B
:100D600085FB882780F90895F9DF882321F0809199
:100D7000790090E00895809178009091790008952D
:100D80008032A0F497E890937A0090917C006623DB
:100D900011F0906C02C09F779064907E982B909396
:100DA0007C0080917A00806480937A000895A0E0AE
:100DB000B0E0EDEDF6E00C949A14EB0160E0E0DFBA
:100DC00080917A0086FDFCCF8E01C12CD12C76015A
:100DD00080917A00806480937A0080917A0086FD09
:100DE000FCCFC2DFC80ED91EE11CF11C0150110955
:100DF0000115110569F7CE0196958795C034D10587
:100E000038F48C0D9D1DBE010E940C14CB010EC048
:100E1000A7019601280F391F411D511DCA01B901B3
:100E20009E0140E050E00E943314C901CDB7DEB707
:100E3000E8E00C94B614CF92DF92EF92FF92A0916B
:100E4000FC01B091FD019C010E9471146B017C01B9
:100E500085DF882359F0C701B60161587F4F8F4F56
:100E60009F4F2FEF30E040E050E00AC0C701B601CD
:100E700061507E4F8F4F9F4F2FEF33E040E050E0A7
:100E80000E943314C901FF90EF90DF90CF90089536
:100E90008EDFD1CF1F93CF93DF9360DF182F4FDF0B
:100EA0006AE070E086E0F4DFEC01812F4EDFCE01D6
:100EB000880F991F8C0F9D1F019696958795DF913E
:100EC000CF911F910895E6CF08959091D603E091B8
:100ED000D103F091D203992311F0849101C0808154
:100EE0002FEB280F2A3110F4805E0895803249F4E8
:100EF0009F012F5F3F4F3093D2032093D103EF2BFD
:100F000031F708951F93CF93DF93DFDFC0E0D0E088
:100F10001AE090ED980F9A30B0F49E01129FE00114
:100F2000139FD00D1124C80FD11D87FDDA95E097CE
:100F30008091D1039091D20301969093D203809334
:100F4000D103C3DFE6CFCE01DF91CF911F9108958A
:100F500010926F0083E28093800081E18093810092
:100F60001092820080E197E290938900809388003C
:100F700010928B0010928A00229A789408958F9292
:100F80009F92AF92BF92DF92EF92FF920F931F93C7
:100F9000CF93DF935C018B01D42E8091D303811119
:100FA00004C081E08093D303D3DF10920702B7FE21
:100FB00005C0E894B7F82AE0F22E02C0FF24F394AB
:100FC000E09081002E2D287FE22E48ECF49EC00197
:100FD00011248A159B05E0F4E50151E1A51657E2BD
:100FE000B50610F0C0E1D7E2BE017695679580E0C6
:100FF00090E06058794687469F4F4E01A12CB12C56
:10100000A50194010E94331459018E2D816024C0E2
:10101000C8E2FC9EC02D1124D0E0CA15DB0508F4FF
:10102000E501BE01769567959E0140E050E08AE0BB
:10103000F81207C080E090E0605E734481449F4FE7
:1010400006C080E090E060537D4E8C4E9F4F0E9422
:10105000331459018E2D8260882E2AE0F21207C0C7
:10106000CE0105966AE070E00E940C14EB01C83EC8
:1010700043E0D40759F09801DE010E94711428EE74
:1010800033E040E050E00E945514890110926F0057
:1010900080928100B0928900A092880020918800FF
:1010A000309189004D2D403108F04FE080E190E013
:1010B000841B9109A90102C0569547958A95E2F7CC
:1010C00050938B0040938A001093D9030093D80368
:1010D00086B38FEF86BB81E080936F00DF91CF9165
:1010E0001F910F91FF90EF90DF90BF90AF909F9076
:1010F0008F900895CF93DF93EB018F3F11F0411153
:1011000005C040E0BE0188EE93E043C0813130F07D
:1011100050EF580F503618F05FE501C050E0852FB2
:101120006CE00E940014682F74EF76039001112484
:10113000250F311D2C30310540F4F901EE0FFF1F52
:10114000E65EFD4F2081318102C020E030E0873033
:1011500081F0082E02C0220F331F0A94E2F782307A
:1011600028F0C90105966AE070E00CC0C9019058EA
:101170000CC0C90136E0880F991F3A95E1F7029635
:1011800065E070E00E940C14CB01403108F04FE0A4
:10119000BE01F5DEDF91CF910895A2E0B0E0E3ED6E
:1011A000F8E00C949214909006028091D503882365
:1011B00021F06091D403611117C077247394B0ECCF
:1011C000AB2EBDE5BB2E1AE0612E04E0802E80ED33
:1011D000C82E87E0D82E94E0E92EF12C04EF11E020
:1011E0002FE0422E512C14C070E040E088EE93E0D6
:1011F000C6DE1092D4030CC18636CCF5813609F4D4
:10120000A3C074F58C3309F45CC08E3379F49394E5
:101210005CDE2091D1033091D2032F5F3F4F30939A
:10122000D2032093D103853639F74FC0813209F0BC
:1012300086C080920602D0920502C0920402F0920B
:101240000302E09202021093010200930002509206
:10125000FF014092FE011092D503A4E09A2ED8CF50
:10126000833689F10CF473C010E082E072C08D36D1
:10127000A9F18CF4873679F15CF18C3609F05FC006
:1012800041DEBC019093030280930202809104022C
:10129000909105024DC08237B1F144F48F3609F0C8
:1012A0004EC030DE982E80930602B2CF843771F1A3
:1012B000863709F044C026DE9093FF018093FE013B
:1012C000A7CF9A94A5CF10E01FC010E084E041C0E2
:1012D00010E085E03EC010E087E03BC0F6DD8C36D4
:1012E00019F41092D50304C07092D5031092D40360
:1012F0002091D1033091D2032F5F3F4F3093D2031F
:101300002093D10385CF11E080E023C0FBDDBC0139
:10131000C5010E940C14669EC001679E900D1124A9
:10132000909305028093040260910202709103027F
:101330000E940C14709301026093000269CF109216
:10134000D2031092D10364C010E089E002C010E023
:101350008BE0082F9CE0999E000D1124B6DD982F9C
:10136000977F933261F42091D1033091D2032F5FA4
:101370003F4F3093D2032093D1030F5FEFCF8D32D5
:1013800069F42091D1033091D2032F5F3F4F309306
:10139000D2032093D103015098DDF1CF6091000278
:1013A000709101028153883048F4E0900402F0907B
:1013B0000502A8DDBC01C7010E940C147B01F69454
:1013C000E79469837A8381DD69817A818E3269F459
:1013D0002091D1033091D2032F5F3F4F3093D2033E
:1013E0002093D1036E0D7F1DEACF8091D503882312
:1013F00039F09B01369527952093D403621B710920
:101400004091FE01112311F08FEF01C0802F72DE99
:101410002296E0E10C94AE141F920F920FB60F9239
:1014200011242F933F934F935F936F937F938F93E9
:101430009F93AF93BF93EF93FF938091D8039091C5
:10144000D9039C01215031093093D9032093D8034B
:10145000892B09F510926F00789480918100887F24
:1014600081608093810080E197E29093890080936E
:10147000880010928B0010928A0081E0809307020E
:101480008091D1039091D203892B29F08091D703C9
:10149000811101C082DEFF91EF91BF91AF919F91C9
:1014A0008F917F916F915F914F913F912F910F900D
:1014B0000FBE0F901F90189580910702882349F066
:1014C00081E02091D1033091D203232B19F480E0E5
:1014D000089581E00895F0CF089510926F009093E1
:1014E000D2038093D1031092D6031092D40355CE29
:1014F000F4CF089510926F009093D2038093D1039C
:1015000081E08093D6031092D40347CEF3CF0895A1
:1015100080E090E0089581E090E06F9364E06A9548
:10152000F1F76F910197C9F708950F931F93CF9328
:10153000DF931AB157985A98289AC0E0D0E0EBDFB1
:101540005C9AE9DF09B15C98E6DF5C9AE4DF5C98BD
:10155000249607FF10C0AE0160E070E08091DA03CE
:101560009091DB03A091DC03B091DD03481759078C
:101570006A077B0720F31AB9DF91CF911F910F9172
:10158000089595B1282F217030E0220F331F482F86
:10159000467068E0469FA0011124242B9D7C292BD6
:1015A00025B99BB188708295807F9F77892B8BB9F5
:1015B0005C9AB1DF5C98AFCFA0E0B0E0E2EEFAE079
:1015C0000C949B14C82FD62EE42E809134048111E4
:1015D00004C081E08093340451D0A7DF14B1D5B1A9
:1015E000FAB00BB12898DD2011F05A9A01C05A9830
:1015F00094B1926394B9579A81E0E81621F08C2F48
:1016000082958F70BEDF8C2F8F70BBDFFAB80BB95D
:1016100014B9D5B9CDB7DEB7E7E00C94B71442E002
:1016200060E0CACF42E061E0C7CFA1E0B0E0EBE10B
:10163000FBE00C949C148C01660F660F660FE12C86
:10164000F12C8E2D860F80646983E9DFF801EE0DA1
:10165000FF1D8491E7DF8FEFE81AF80A6981E8E05F
:10166000EE16F10471F72196E6E00C94B814DDCF84
:101670000895D8CF089541E060E09ECF80E197E2E1
:10168000A0E0B0E08093DA039093DB03A093DC0347
:10169000B093DD03529A209A549A8EE190E035D3AC
:1016A00083E0E9DF86E090E030D383E0E4DF82E0AE
:1016B00090E02BD383E0DFDF82E090E026D382E06E
:1016C000DADF82E090E021D388E2A9DF88E0A7DFBB
:1016D00081E0A5DF86E0A3DF8CE0A1CF81E09FDF82
:1016E0008091E0039091E103892BF9F060E0A0E2A2
:1016F000262F30E0709108028091090290E0019756
:10170000789FA001799F500D1124241735074CF4C0
:10171000E091E003F091E103E20FF31FA0836F5F1C
:10172000E7CF1092DE031092DF030895D7CF08951C
:10173000CF93DF93EC018991882311F073DFFBCF06
:10174000DF91CF910895F4CF0895CF93DF93EC010B
:10175000FE018491882319F065DF2196F9CFDF918E
:10176000CF910895F2CF0895AAE0B0E0EAEBFBE054
:101770000C949A141AE05AE0C52ED12CE12CF12CCD
:10178000062FA70196010E943314CA01B901115016
:10179000E1E0F0E0EC0FFD1FE10FF11D005D2AE03C
:1017A000629F00191124008361157105810591055F
:1017B00039F71A3050F4E1E0F0E0EC0FFD1FE10FD3
:1017C000F11D80812FDF1F5FF4CF2A96E8E00C9493
:1017D000B614CF92DF92EF92FF926B017C0197FFDC
:1017E0000AC0F094E094D094C094C11CD11CE11CB8
:1017F000F11C8DE217DFC701B601B6DFFF90EF9055
:10180000DF90CF900895E5CF0895A5E0B0E0EBE03C
:10181000FCE00C949F14182F80E8898380EC8A8365
:1018200084E98B8384ED8C83FE01E60FF11D8181B9
:10183000810F6D83F4DE1093DE036D816093DF030F
:101840002596E3E00C94BB14FF920F931F93CF9364
:10185000DF93C82F8091E0039091E103892B49F435
:101860008C2F992787FD9095CDB7DEB7E5E00C94D6
:10187000B914CA3009F43DC0C830C1F48091DE0308
:1018800081508093DE038F3F51F48091DF038150BC
:101890008093DF038091080281508093DE03809162
:1018A000DF038F3FB9F51092DF0332C08C2FBADE11
:1018B0008091DF038823A1F090E001974091080216
:1018C000489F9001499F300D11248091DE03E091E3
:1018D000E003F091E103E20FF31FE80FF11DC08375
:1018E0008091DE038F5F8093DE039091080289135D
:1018F000B7CF4091DF03842F90E02091090230E0C0
:10190000215031098217930759F04F5F4093DF034D
:101910001092DE036091DF038091DE0376DFA0CFBB
:10192000D0E060910902862F90E002972D2F332797
:1019300027FD3095281739077CF56D2F80E065DF8E
:10194000F12C20910802F21628F50F2D10E03D2F02
:101950003203C0011124E091E003F091E103E00FB4
:10196000F11FE80FF91F80815DDEE091E003F09147
:10197000E103209108023D2F3203C0011124E00F42
:10198000F11FE80FF91FDF01A20FB11D8C918083B9
:10199000F394D7CFDF5FC5CF623038F4609109028E
:1019A000615080E032DFD0E037C0625080E02DDF50
:1019B000D0E060E2F62E40910802D41778F70D2FA0
:1019C00010E02091090230E022503109429FC0010D
:1019D000439F900D1124E091E003F091E103E00FAB
:1019E000F11FE80FF91F80811DDE2091090230E010
:1019F0002250310940910802429FC001439F900D3F
:101A00001124E091E003F091E103E00FF11FE80FF2
:101A1000F91FF082DF5FCFCF80910802D81708F05E
:101A200077CF80E2FFDDDF5FF7CFEFCE08958091C3
:101A3000E0039091E103009711F00E948716209136
:101A400008028091090290E00197AC01249FC00137
:101A5000259F900D11240E94EF159093E103809330
:101A6000E003892B09F160E0A0E2262F30E07091BD
:101A700008028091090290E00197789FA001799F68
:101A8000500D1124241735074CF4E091E003F09138
:101A9000E103E20FF31FA0836F5FE7CF68E87AE00E
:101AA00084E29CE00C9410170895C1CF089588300B
:101AB00058F491E001C0990F8A95EAF7892FAAE2BC
:101AC000B0E0EBE2F0E021C08E3060F498EF980FC8
:101AD00081E001C0880F9A95EAF7A4E2B0E0E5E260
:101AE000F0E013C0853160F492EF980F81E001C0FF
:101AF000880F9A95EAF7A7E2B0E0E8E2F0E005C0C7
:101B000080E0A0E0B0E0E0E0F0E06F3F19F4908109
:101B1000982709C0662319F09081982B04C0208172
:101B2000982F9095922390839C91982B9C93089545
:101B300083EF8093B00084BD82E08093B10085BDC7
:101B40001092B4001092B30018BC17BC60E086E09D
:101B5000AEDF60E085E0ABDF60E08BE0A8DF60E057
:101B600083E0A5CF80913504811104C081E080938A
:101B70003504DECF0895CF93DF93EC01F3DFD7FF79
:101B800005C0D195C195D10981E001C080E0CF3F6A
:101B9000D10519F014F0CFEFD0E0882319F018BC6C
:101BA000C7BD02C0C8BD17BCDF91CF910895CF93C8
:101BB000DF93EC01D7DFD7FF05C0D195C195D109DF
:101BC00081E001C080E0CF3FD10519F014F0CFEFE4
:101BD000D0E0882329F01092B400C093B30004C071
:101BE000C093B4001092B300DF91CF910895CF93CA
:101BF000DF93EB01C0DFCE01DADFDF91CF910895F3
:101C0000F6CF089584B18D7C84B985B1826385B99E
:101C100085E090E06F9364E06A95F1F76F9101972A
:101C2000C9F7089580913604811104C081E0809342
:101C30003604E8CF0895CF93C82FF4DF83B18C2307
:101C4000E9F38AE090E061D083B18C23B9F383B1EA
:101C50008C23CF910895EFCF0895A1E0B0E0E2E3A7
:101C6000FEE06EC68983DEDF93B19095898189237A
:101C70002196E2E081C6F1CF08952F928F939F9332
:101C80002FB68091E9039091EA0301968093E903CE
:101C90009093EA0390E08091EB03891F8093EB031C
:101CA0009091E3039C5F9093E3038091E203805162
:101CB0009742C0F09093E3038093E2038091E403A2
:101CC0009091E50301968093E4039093E50390E0FF
:101CD0008091E603891F8093E6038091E703891FC3
:101CE0008093E7032FBE9F918F912F90189528EE38
:101CF00033E0019748F0F9016F9364E06A95F1F7DA
:101D00006F913197C9F7F5CF0895F1CF0895E0E7C6
:101D1000F0E080818E7F8083A0EBB0E08C918360C7
:101D20008C93A1EBB0E08C91807F8C938C9182603E
:101D30008C93B89A80818160808378940895809193
:101D40003704811104C081E080933704E0CF089507
:101D5000F6DF809170008E7F809370002091B2003A
:101D60008091E8039091E903A091EA03B091EB031D
:101D7000B89903C0BC01CD010DC02091B2006091A3
:101D8000E8037091E9038091EA039091EB037F5F90
:101D90008F4F9F4F622B2091700021602093700025
:101DA0000895D6CF0895CBDFE0E7F0E080818E7F05
:101DB00080831092E4031092E5031092E6031092E0
:101DC000E7031092E3031092E20380818160808335
:101DD0000895682F8CEE93E0BFC3462F20E0BC012E
:101DE0008CEE93E083C40F93CF93DF9300D000D0A9
:101DF0001F92CDB7DEB79C0185E0E2E3F2E0DE01A1
:101E0000119601900D928A95E1F7662311F00FEF7C
:101E100001C003E145E0BE016F5F7F4F8CEE93E0B0
:101E2000A8D08CEE93E07ED0BEDF0F900F900F9085
:101E30000F900F90DF91CF910F91089560E0D3CF75
:101E40008CEE93E0C3C46F9364E06A95F1F76F91F1
:101E50000197C9F70895FC01118210821382128242
:101E6000158214821682683068F489E290E09183CA
:101E700080838BE290E0938382838AE290E0958373
:101E800084831FC06E3070F483E290E0918380837E
:101E900085E290E09383828384E290E0958384835B
:101EA00068500FC0653198F486E290E0918380839A
:101EB00088E290E09383828387E290E09583848335
:101EC0006E5081E001C0880F6A95EAF78683089515
:101ED000A7E0B0E0EDE6FFE031C58C01FC01118226
:101EE0001082138212821582148217821682613147
:101EF00018F080E1808702C0FC016087F801208B28
:101F0000642FCE010196A7DF8F81F80181878B8135
:101F10009C81938782878D819E8195878487279670
:101F2000E4E028C5FC01A485B585109771F08C917B
:101F30009185892B8C93A285B3859C918185809511
:101F400089238C9388EC90E07ECF0895FC01A485D2
:101F5000B585109769F08C919185892B8C93A2851A
:101F6000B3858C919185892B8C9388EC90E06BCF15
:101F70000895A7E0B0E0EEEBFFE0D5C47C014B0193
:101F8000642F3901402F20E0A3DF87010F5B1F4F33
:101F9000F80110826701F2E4CF0ED11CF601108225
:101FA0005701F3E4AF0EB11CF5011082F7017786FB
:101FB0006686512CF7018085581648F5652C712CE2
:101FC000F401E60DF71D6081CE01019644DF2F81FB
:101FD000F701E60DF71D218B89819A81F301EE0F40
:101FE000FF1FEE0DFF1D92A381A38332910511F413
:101FF000F80108C08632910511F4F60103C08997F3
:1020000021F4F5018081822B80835394D3CF2796CE
:10201000EFE0A5C4A0E0B0E0EFE0F0E186C4EC01A1
:102020005B016C0181E4C80ED11CF60180807E0149
:10203000F2E4EF0EF11CF70170808E010D5B1F4F73
:10204000F801908080E09885891748F4F501E80F41
:10205000F11DE80FF11D118210828F5FF4CF84B162
:10206000F6019081892B84B987B1F7019081892B82
:1020700087B98AB1F8019081892B8AB985B1F601B7
:102080009081892B85B988B1F7019081892B88B916
:102090008BB1F8019081892B8BB98AE090E0D3DE77
:1020A00094B1F60180818095892384B997B1F701B5
:1020B00080818095892387B99AB1F80180818095C4
:1020C00089238AB995B1F60180818095892385B9E4
:1020D00098B1F70180818095892388B99BB1F80177
:1020E0008081809589238BB9E090B000D090B100B9
:1020F0008091B00083608093B00082E08093B10053
:102100004091B20080E090E02E853F8582179307D2
:1021100020F5C090B2002C2D241B820F911D03B11D
:10212000081132C0F6B0F7102FC029B129112CC008
:1021300010C0212F30E0A901440F551FF501E40F15
:10214000F51F60817181672B21F11F5F28851217B0
:1021500080F37F2C802E4C2DD7CFE092B000D09210
:10216000B10020E08885281730F5F501E20FF11D58
:10217000E20FF11D80819181892B21F48E859F854D
:10218000918380832F5FEECF03B1F6B099B010E05A
:10219000DDCFDE01A40FB51F91960D90BC91A02D4F
:1021A0004C91DE01A20FB31F51962C91422369F688
:1021B00091838083CACFCDB7DEB7EDE0D2C3EF9273
:1021C000FF920F931F93CF93DF93FC019B01F0903D
:1021D0007C0000917A0047B118B180917A0086FDA9
:1021E000FCCF80E09085891748F4D901A80FB11D74
:1021F000A80FB11D1D921C928F5FF4CF97B182A1E1
:102200008095892387B998B182A18095892388B95F
:1022100087E880937A00E12C81A1E81610F0E12C88
:1022200029C050E08085581718F5A52FB0E0EF01C0
:10223000CA0FDB1F8989806480937C0080917A00BB
:10224000806480937A0080917A0086FDFCCF609153
:10225000780070917900AA0FBB1FA20FB31F8D9158
:102260009C911197860F971F8D939C935F5FDACF98
:10227000E394D2CF8085E81698F4E901CE0DD11D04
:10228000CE0DD11D61A170E0CB0195958795A881F8
:10229000B9818A0F9B1FC0D279836883E394EACF08
:1022A000F0927C0000937A0018B947B9CDB7DEB739
:1022B000E6E05EC3A0E2B0E0EFE5F1E13CC38C01F3
:1022C0007B01D42E8FEF840F823010F4C8013EDEE4
:1022D000D80150968C91B70181110DC0C8019ADECA
:1022E000C80120DEB2E0DB1236C0BE016F5F7F4F57
:1022F000C80190DE0CC0C80162DFC80113DEE2E055
:10230000DE1229C0BE016F5F7F4FC80158DF40E079
:10231000F80180854817F8F4842F90E0880F991F02
:10232000F701E80FF91F21E030E02C0F3D1F820F6D
:10233000931FD8011E962D913C911F97DC018D9122
:102340009C91281B390B80819181820F931F91836F
:1023500080834F5FDDCFA096E7E009C32F923F92C5
:102360005F926F927F928F929F92AF92BF92CF9225
:10237000DF92EF92FF920F931F93CF93DF93CDB72E
:10238000DEB7C056D1090FB6F894DEBF0FBECDBF81
:102390008C014B015A01522EDA018D919C91892BAF
:1023A00031F0F40180819181892BE9F423C0D801B7
:1023B00018968C9190E0880F991F11D4F5019183A4
:1023C0008083009709F4AFC0FC0120E030E0D80121
:1023D00018968C9190E0281739071CF711921192EA
:1023E0002F5F3F4FF4CFE12CF12C6E01B1E2CB0E09
:1023F000D11C20C0F801808590E0880F991FEFD391
:10240000D4018D939C93009709F48DC0FC0120E0CA
:1024100030E0D80118968C9190E0281739071CF706
:10242000D8011E968D919C911F97819391932F5F58
:102430003F4FEFCF452DBE016F5B7F4FC8013ADFA5
:10244000F8016084712CFE01EF5BFF4FC6019E0115
:102450002F5F3F4F190120E030E0261537054CF57E
:10246000E114F10489F0DC016D917C91408151818E
:102470006417750748F0D1016D917C9140815181BD
:102480004617570748F00DC040815181DC014D933C
:102490005C93E114F10479F740815181D1014D93AE
:1024A0005C932F5F3F4FB2E02B0E311C32960296A9
:1024B000D4CFEFEFEE1AFE0AFAE0EF16F10409F0BE
:1024C000B9CF9E012F5F3F4F7901360180E090E048
:1024D000F801208530E0821793072CF5D7012D9164
:1024E0003D917D01B3016C197D09D501ED91FC9100
:1024F000E60FF71F408151814217530710F43183D3
:102500002083F301219131913F01D401ED91FC91A0
:10251000E60FF71F408151812417350710F43183EE
:1025200020830196D5CFC05ADF4F0FB6F894DEBF97
:102530000FBECDBFDF91CF911F910F91FF90EF9014
:10254000DF90CF90BF90AF909F908F907F906F90D3
:102550005F903F902F9008951F93CF93DF93EC01EE
:10256000162F8FEF860F823018F0662351F012C0BD
:1025700021E0AE014E5F5F4FBE01CE01EFDE1230B3
:1025800049F4AE014A5F5F4FBE016C5F7F4F20E0B0
:10259000CE01E4DEDF91CF911F910895A0E0B0E07D
:1025A000E3EDF2E1C6C1EC018B01B42E842F8D7FE7
:1025B00051F48C819D81892B09F494C08E819F8177
:1025C000892B09F48FC08FEF8B0D823050F48881F6
:1025D0009981892B09F486C08A819B81892B09F412
:1025E00081C04B2DB801CE0165DE780100E010E01E
:1025F000C12CD12C888590E0C816D9060CF072C089
:1026000081E0B8120AC0EA81FB81E00FF11F01905E
:10261000F081E02DA881B9810DC08C819D812E8132
:102620003F81B1100CC0F901E00FF11F0190F08162
:10263000E02DDC01A00FB11F8D919C9128C0FC0101
:10264000E00FF11F40815181E881F981E00FF11F16
:1026500080819181EE85FF854817590710F4CF01DD
:1026600004C08E0F9F1F841B950BD901A00FB11FB3
:102670002D913C91AA81BB81A00FB11F4D915C911E
:102680002417350720F0E40FF51FE21BF30BE81BBE
:10269000F90B99F0D7012D913C9140E050E0281BB7
:1026A000390B41095109A8EEB3E02AD19F0140E05E
:1026B00050E0FBD037FD0AC002C020E030E0293EE8
:1026C000B3E03B072CF028EE33E002C020E030E01E
:1026D000F701219331937F01FFEFCF1ADF0A0E5FDD
:1026E0001F4F88CFCDB7DEB7E9E03FC1A0E0B0E033
:1026F000EBE7F3E115C1EC018B01822E4FDF28845B
:10270000E801412C512C320100E010E0C12CD12C09
:102710007601312C912C58EEA52E53E0B52E921453
:1027200019F1E991F991882021F0C5018E1B9F0BC9
:10273000FC01E93CF10524F4E333F1056CF002C03F
:1027400033243394DF01A3019201E4D0C60ED71ED7
:10275000E81EF91E0E0F1F1F939498EE490E93E08A
:10276000591E611C711CDBCF31101EC0492D50E079
:102770004150510924EF31E0429FC001439F900D29
:10278000529F900D1124209130043091310428176C
:102790003907ACF088EE93E0489F9001499F300DD7
:1027A000589F300D11240DC0980140E050E0C70142
:1027B000B60159D0309331042093300402C020E098
:1027C00030E0C901CDB7DEB7E2E1C6C0CF93DF93F9
:1027D000EC018A819B81009709F099D28E819F81BB
:1027E000009709F094D288819981009709F08FD2DF
:1027F0008C819D81009709F08AD2DF91CF91089555
:10280000991B79E004C0991F961708F0961B881F42
:102810007A95C9F780950895AA1BBB1B51E107C0A3
:10282000AA1FBB1FA617B70710F0A61BB70B881F60
:10283000991F5A95A9F780959095BC01CD010895EF
:1028400097FB072E16F4009406D077FD08D0E4DF3E
:1028500007FC05D03EF4909581959F4F08957095A3
:1028600061957F4F0895A1E21A2EAA1BBB1BFD01A3
:102870000DC0AA1FBB1FEE1FFF1FA217B307E4075F
:10288000F50720F0A21BB30BE40BF50B661F771FB7
:10289000881F991F1A9469F7609570958095909597
:1028A0009B01AC01BD01CF010895052E97FB16F4E5
:1028B00000940FD057FD05D0D6DF07FC02D046F4B8
:1028C00008C050954095309521953F4F4F4F5F4F31
:1028D000089590958095709561957F4F8F4F9F4F8C
:1028E0000895A29FB001B39FC001A39F700D811DE9
:1028F0001124911DB29F700D811D1124911D089509
:10290000F0DFA59F900DB49F900DA49F800D911DA9
:1029100011240895B7FFF4CFF3DF821B930B0895C2
:102920002F923F924F925F926F927F928F929F92DF
:10293000AF92BF92CF92DF92EF92FF920F931F93CD
:10294000CF93DF93CDB7DEB7CA1BDB0B0FB6F8947E
:10295000DEBF0FBECDBF09942A88398848885F84BE
:102960006E847D848C849B84AA84B984C884DF802F
:10297000EE80FD800C811B81AA81B981CE0FD11D13
:102980000FB6F894DEBF0FBECDBFED010895EE0F78
:10299000FF1F0590F491E02D099404D06894B111C3
:1029A0008DC0089570D088F09F5790F0B92F992767
:1029B000B751A0F0D1F0660F771F881F991F1AF04A
:1029C000BA95C9F712C0B13081F077D0B1E008955F
:1029D00074C0672F782F8827B85F39F0B93FCCF3E0
:1029E000869577956795B395D9F73EF49095809540
:1029F000709561957F4F8F4F9F4F0895E89409C060
:102A000097FB3EF490958095709561957F4F8F4F21
:102A10009F4F9923A9F0F92F96E9BB279395F69537
:102A2000879577956795B795F111F8CFFAF4BB0FB5
:102A300011F460FF1BC06F5F7F4F8F4F9F4F16C019
:102A4000882311F096E911C0772321F09EE8872FA3
:102A5000762F05C0662371F096E8862F70E060E05F
:102A60002AF09A95660F771F881FDAF7880F9695D8
:102A7000879597F9089557FD9058440F551F59F0C1
:102A80005F3F71F04795880F97FB991F61F09F3F5B
:102A900079F087950895121613061406551FF2CF84
:102AA0004695F1DF08C0161617061806991FF1CFD4
:102AB00086957105610508940895E894BB276627FB
:102AC0007727CB0197F908950BD078C069D028F00B
:102AD0006ED018F0952309F05AC05FC01124EECFD4
:102AE000CADFA0F3959FD1F3950F50E0551F629F69
:102AF000F001729FBB27F00DB11D639FAA27F00D57
:102B0000B11DAA1F649F6627B00DA11D661F829F7D
:102B10002227B00DA11D621F739FB00DA11D621F62
:102B2000839FA00D611D221F749F3327A00D611D7F
:102B3000231F849F600D211D822F762F6A2F112461
:102B40009F5750408AF0E1F088234AF0EE0FFF1FB4
:102B5000BB1F661F771F881F91505040A9F79E3FEB
:102B6000510570F014C0AACF5F3FECF3983EDCF340
:102B7000869577956795B795F795E7959F5FC1F728
:102B8000FE2B880F911D9695879597F9089597F9D3
:102B90009F6780E870E060E008959FEF80EC089503
:102BA00000240A941616170618060906089500242C
:102BB0000A9412161306140605060895092E0394A6
:102BC000000C11F4882352F0BB0F40F4BF2B11F41A
:102BD00060FF04C06F5F7F4F8F4F9F4F08950F932B
:102BE0001F93CF93DF938230910510F482E090E041
:102BF000E0915604F091570420E030E0A0E0B0E00E
:102C0000309719F14081518102811381481759078A
:102C1000C8F08417950769F4109731F012960C9359
:102C2000129713961C9327C00093560410935704D1
:102C300022C02115310519F04217530718F49A01E3
:102C4000BD01EF01DF01F801DBCF21153105F9F0FE
:102C5000281B390B2430310580F48A819B81611552
:102C6000710521F0FB019383828304C09093570484
:102C700080935604FE01329644C0FE01E20FF31F1A
:102C80008193919322503109398328833AC020914E
:102C9000540430915504232B41F420910C023091BF
:102CA0000D02309355042093540420910A02309170
:102CB0000B022115310541F42DB73EB740910E02AC
:102CC00050910F02241B350BE0915404F0915504F0
:102CD000E217F307A0F42E1B3F0B2817390778F0F3
:102CE000AC014E5F5F4F2417350748F04E0F5F1F52
:102CF00050935504409354048193919302C0E0E0B3
:102D0000F0E0CF01DF91CF911F910F910895CF9304
:102D1000DF93009709F481C0FC013297138212827D
:102D2000A0915604B0915704109781F4208131810D
:102D3000820F931F209154043091550428173907AE
:102D400051F5F0935504E093540467C0ED0120E081
:102D500030E0CE17DF0740F44A815B819E014115C8
:102D60005105F1F0EA01F5CFD383C283408151814F
:102D7000840F951FC817D90759F488819981840F4A
:102D8000951F0296918380838A819B81938382839E
:102D90002115310529F4F0935704E09356043DC002
:102DA000E901FB83EA8349915991C40FD51FEC17C0
:102DB000FD0761F480819181840F951F0296E901DE
:102DC00099838883828193819B838A83E0E0F0E00A
:102DD00012968D919C911397009719F0FD01DC01DB
:102DE000F7CF8D919C9111979D012E5F3F4F820FE0
:102DF000931F20915404309155042817390769F422
:102E0000309729F4109257041092560402C013828E
:102E10001282B0935504A0935404DF91CF9108958A
:102E20000F931F93CF93DF93009731F461157105D2
:102E300019F480E090E039C08B01EC016EE070E0A5
:102E400081E090E04CD2FC01892B99F380E88383E8
:102E50000115110571F01387028781E88383809142
:102E6000580490915904892B21F4F0935904E0936C
:102E700058042097C9F0D187C087838182608383FB
:102E800080915A0490915B04892B71F4F0935B0458
:102E9000E0935A0480915C0490915D04892B21F4A5
:102EA000F0935D04E0935C04CF01DF91CF911F911B
:102EB0000F910895A0E0B0E0EFE5F7E141CDAE015C
:102EC0004B5F5F4FFA0161917191AF0180915A049C
:102ED00090915B0432D0E2E04FCD0F931F93CF93DC
:102EE000DF93E0915A04F0915B04238121FF1BC022
:102EF0008C01D0E0C0E0F80181918F0160915A040B
:102F000070915B04DB011896ED91FC911997882371
:102F100031F00995892B79F3DFEFCFEFECCF8AE021
:102F20000995892B19F08FEF9FEF02C08D2F9C2FF1
:102F3000DF91CF911F910F910895ABE0B0E0E2EAED
:102F4000F7E1EECC6C017B018A01FC01178216824D
:102F5000838181FFBFC1CE0101963C01F6019381BF
:102F6000F70193FD859193FF81917F01882309F4F7
:102F7000ADC1853239F493FD859193FF81917F0135
:102F8000853221F4B60190E0E1D1E8CF912C212CDB
:102F9000312CFFE1F315D8F08B3279F038F4803220
:102FA00079F08332A1F4232D20611DC08D3261F0B0
:102FB000803369F4232D216016C0832D8260382E62
:102FC000E32DE4603E2E2AC0F32DF8601DC037FCCF
:102FD0002DC020ED280F2A3040F08E32B9F436FC97
:102FE00075C1232D2064322E19C036FE06C08AE03A
:102FF000989E200D1124922E11C0EAE02E9E200DE5
:103000001124222EF32DF0623F2E08C08C3621F4BD
:10301000832D8068382E02C0883641F4F70193FD75
:10302000859193FF81917F018111B3CF982F9F7D6F
:103030009554933028F40C5F1F4F9FE399830DC084
:10304000833631F0833771F0833509F055C020C0E5
:10305000F801808189830E5F1F4F88248394912C0F
:10306000530112C02801F2E04F0E511CF801A0805C
:10307000B18036FE03C0692D70E002C06FEF7FEFB4
:10308000C50159D14C018201F32DFF773F2E15C0A8
:10309000280122E0420E511CF801A080B18036FECA
:1030A00003C0692D70E002C06FEF7FEFC50131D121
:1030B0004C01F32DF0683F2E820133FC19C0822DA4
:1030C00090E088169906A0F4B60180E290E03ED127
:1030D0002A94F5CFF50137FC859137FE81915F0188
:1030E000B60190E033D121102A9421E0821A910890
:1030F0008114910479F7E1C0843611F0893639F5ED
:10310000F80137FE07C060817181828193810C5F75
:103110001F4F08C060817181072E000C880B990B2E
:103120000E5F1F4FF32DFF763F2E97FF09C090953E
:103130008095709561957F4F8F4F9F4FF0683F2E20
:103140002AE030E0A3013ED1882E861844C085379E
:1031500031F4232D2F7EB22E2AE030E025C0932DAE
:10316000997FB92E8F36C1F018F4883579F0AEC04A
:10317000803719F0883721F0A9C0E92FE061BE2E11
:10318000B4FE0DC0FB2DF460BF2E09C034FE0AC092
:10319000292F2660B22E06C028E030E005C020E1CD
:1031A00030E002C020E132E0F801B7FE07C06081E4
:1031B0007181828193810C5F1F4F06C06081718194
:1031C00080E090E00E5F1F4FA301FCD0882E861890
:1031D000FB2DFF773F2E36FE0DC0232D2E7FA22E16
:1031E000891458F434FE0BC032FC09C0832D8E7E46
:1031F000A82E05C0B82CA32C03C0B82C01C0B92C34
:10320000A4FE0FC0FE01E80DF11D8081803321F482
:103210009A2D997EA92E09C0A2FE06C0B394B3943C
:1032200004C08A2D867809F0B394A3FC10C0A0FED8
:1032300006C0B21480F4280C922C9B180DC0B21456
:1032400058F4B60180E290E081D0B394F8CFB21484
:1032500018F42B1802C0982C212CA4FE0FC0B60124
:1032600080E390E073D0A2FE16C0A1FC03C088E703
:1032700090E002C088E590E0B6010CC08A2D867807
:1032800051F0A1FE02C08BE201C080E2A7FC8DE2FA
:10329000B60190E05BD0891430F4B60180E390E091
:1032A00055D09A94F8CF8A94F301E80DF11D8081EE
:1032B000B60190E04BD08110F6CF222009F44ECE1B
:1032C000B60180E290E042D02A94F7CFF6018681E1
:1032D000978102C08FEF9FEF2B96E2E13DCB0F93DA
:1032E0001F93CF93DF93869F8001879F100D969F3A
:1032F000100D1124C80173DCEC01009721F0A80126
:1033000060E070E011D0CE01DF91CF911F910F915D
:103310000895FC010590615070400110D8F7809528
:1033200090958E0F9F1F0895DC0101C06D93415051
:103330005040E0F70895FC01615070400190011089
:10334000D8F7809590958E0F9F1F08950F931F9328
:10335000CF93DF93FB01238121FD03C08FEF9FEF0C
:103360002CC022FF16C04681578124813581421727
:10337000530744F4A081B1819D012F5F3F4F3183FA
:1033800020838C93268137812F5F3F4F378326839D
:1033900014C08B01EC01FB010084F185E02D09953F
:1033A000892BE1F6D80116968D919C91179701967D
:1033B00017969C938E931697CE01DF91CF911F9114
:1033C0000F910895FA01AA27283051F1203181F197
:1033D000E8946F936E7F6E5F7F4F8F4F9F4FAF4F1D
:1033E000B1E03ED0B4E03CD0670F781F891F9A1F30
:1033F000A11D680F791F8A1F911DA11D6A0F711DE4
:10340000811D911DA11D20D009F468943F912AE0EF
:10341000269F11243019305D3193DEF6CF010895D7
:10342000462F4770405D4193B3E00FD0C9F7F6CF08
:10343000462F4F70405D4A3318F0495D31FD4052D0
:10344000419302D0A9F7EACFB4E0A6959795879566
:1034500077956795BA95C9F7009761057105089545
:103460009B01AC010A2E06945795479537952795F1
:10347000BA95C9F7620F731F841F951FA01D089589
:1034800010E0C6E5D0E003C0FE0181DA2196C73521
:08349000D107D1F7F894FFCF3A
:1034980001010101015858586400010005000100AC
:1034A8000100010046003200080007000100010089
:1034B80001000100010001000100010001000000FD
:1034C80000000000000000000000010001000000F2
:1034D80000000000000000000000010001000000E2
:1034E80000000000000000000000010001000000D2
:1034F80000000000000000000000010001000000C2
:1035080000000000000000000000010001000100B0
:10351800010001000100010001000100010001009B
:10352800010001000100010001000100010000008C
:103538000000010000000000000001000100000080
:103548000000000000000000000001000100000071
:10355800000000000000010001000100010000005F
:103568000000010000000000000001000100000050
:10357800000001000000000000000100010001003F
:1035880001000100010001000100010088130F0083
:10359800F4010400D0070401080200005E042000C2
:1035A800200000010203040506FF9C01B501CF01BC
:1035B800EA0107022602470269028E02B502DE020C
:1035C8000A030E0F1011126D5600507265737320A6
:1035D8004200476F210068656C6C6F000A776F7254
:1035E8006C64002052200020442000204C20002041
:1035F80072204C003E6E6F74204C002072205300E5
:1036080020722052003E6E6F742052003E6E6F741E
:103618002055002072205320003E6E6F7420440015
:103628000A564552494649434152205455524E2064
:103638005520004F627374616375003E3E613332FA
:10364800004F422825642C256429000A4E44282569
:10365800642C256429000A4E4C2825642C256429ED
:10366800000A4E552825642C256429000A4E522844
:1036780025642C25642900666F756E64004E6F20E2
:083688007461726765740000B3
:00000001FF
